{
  "contractName": "GovernorBravoDelegator",
  "abi": [
    {
      "inputs": [
        {
          "internalType": "address",
          "name": "timelock_",
          "type": "address"
        },
        {
          "internalType": "address",
          "name": "comp_",
          "type": "address"
        },
        {
          "internalType": "address",
          "name": "admin_",
          "type": "address"
        },
        {
          "internalType": "address",
          "name": "implementation_",
          "type": "address"
        },
        {
          "internalType": "uint256",
          "name": "votingPeriod_",
          "type": "uint256"
        },
        {
          "internalType": "uint256",
          "name": "votingDelay_",
          "type": "uint256"
        },
        {
          "internalType": "uint256",
          "name": "proposalThreshold_",
          "type": "uint256"
        }
      ],
      "payable": false,
      "stateMutability": "nonpayable",
      "type": "constructor"
    },
    {
      "anonymous": false,
      "inputs": [
        {
          "indexed": false,
          "internalType": "address",
          "name": "recipient",
          "type": "address"
        },
        {
          "indexed": false,
          "internalType": "uint256",
          "name": "amount",
          "type": "uint256"
        }
      ],
      "name": "CompGranted",
      "type": "event"
    },
    {
      "anonymous": false,
      "inputs": [
        {
          "indexed": false,
          "internalType": "address",
          "name": "oldAdmin",
          "type": "address"
        },
        {
          "indexed": false,
          "internalType": "address",
          "name": "newAdmin",
          "type": "address"
        }
      ],
      "name": "NewAdmin",
      "type": "event"
    },
    {
      "anonymous": false,
      "inputs": [
        {
          "indexed": false,
          "internalType": "address",
          "name": "oldImplementation",
          "type": "address"
        },
        {
          "indexed": false,
          "internalType": "address",
          "name": "newImplementation",
          "type": "address"
        }
      ],
      "name": "NewImplementation",
      "type": "event"
    },
    {
      "anonymous": false,
      "inputs": [
        {
          "indexed": false,
          "internalType": "address",
          "name": "oldPendingAdmin",
          "type": "address"
        },
        {
          "indexed": false,
          "internalType": "address",
          "name": "newPendingAdmin",
          "type": "address"
        }
      ],
      "name": "NewPendingAdmin",
      "type": "event"
    },
    {
      "anonymous": false,
      "inputs": [
        {
          "indexed": false,
          "internalType": "uint256",
          "name": "id",
          "type": "uint256"
        }
      ],
      "name": "ProposalCanceled",
      "type": "event"
    },
    {
      "anonymous": false,
      "inputs": [
        {
          "indexed": false,
          "internalType": "uint256",
          "name": "id",
          "type": "uint256"
        },
        {
          "indexed": false,
          "internalType": "address",
          "name": "proposer",
          "type": "address"
        },
        {
          "indexed": false,
          "internalType": "address[]",
          "name": "targets",
          "type": "address[]"
        },
        {
          "indexed": false,
          "internalType": "uint256[]",
          "name": "values",
          "type": "uint256[]"
        },
        {
          "indexed": false,
          "internalType": "string[]",
          "name": "signatures",
          "type": "string[]"
        },
        {
          "indexed": false,
          "internalType": "bytes[]",
          "name": "calldatas",
          "type": "bytes[]"
        },
        {
          "indexed": false,
          "internalType": "uint256",
          "name": "startBlock",
          "type": "uint256"
        },
        {
          "indexed": false,
          "internalType": "uint256",
          "name": "endBlock",
          "type": "uint256"
        },
        {
          "indexed": false,
          "internalType": "string",
          "name": "description",
          "type": "string"
        }
      ],
      "name": "ProposalCreated",
      "type": "event"
    },
    {
      "anonymous": false,
      "inputs": [
        {
          "indexed": false,
          "internalType": "uint256",
          "name": "id",
          "type": "uint256"
        }
      ],
      "name": "ProposalExecuted",
      "type": "event"
    },
    {
      "anonymous": false,
      "inputs": [
        {
          "indexed": false,
          "internalType": "uint256",
          "name": "id",
          "type": "uint256"
        },
        {
          "indexed": false,
          "internalType": "uint256",
          "name": "eta",
          "type": "uint256"
        }
      ],
      "name": "ProposalQueued",
      "type": "event"
    },
    {
      "anonymous": false,
      "inputs": [
        {
          "indexed": false,
          "internalType": "uint256",
          "name": "oldProposalThreshold",
          "type": "uint256"
        },
        {
          "indexed": false,
          "internalType": "uint256",
          "name": "newProposalThreshold",
          "type": "uint256"
        }
      ],
      "name": "ProposalThresholdSet",
      "type": "event"
    },
    {
      "anonymous": false,
      "inputs": [
        {
          "indexed": true,
          "internalType": "address",
          "name": "voter",
          "type": "address"
        },
        {
          "indexed": false,
          "internalType": "uint256",
          "name": "proposalId",
          "type": "uint256"
        },
        {
          "indexed": false,
          "internalType": "uint8",
          "name": "support",
          "type": "uint8"
        },
        {
          "indexed": false,
          "internalType": "uint256",
          "name": "votes",
          "type": "uint256"
        },
        {
          "indexed": false,
          "internalType": "string",
          "name": "reason",
          "type": "string"
        }
      ],
      "name": "VoteCast",
      "type": "event"
    },
    {
      "anonymous": false,
      "inputs": [
        {
          "indexed": false,
          "internalType": "uint256",
          "name": "oldVotingDelay",
          "type": "uint256"
        },
        {
          "indexed": false,
          "internalType": "uint256",
          "name": "newVotingDelay",
          "type": "uint256"
        }
      ],
      "name": "VotingDelaySet",
      "type": "event"
    },
    {
      "anonymous": false,
      "inputs": [
        {
          "indexed": false,
          "internalType": "uint256",
          "name": "oldVotingPeriod",
          "type": "uint256"
        },
        {
          "indexed": false,
          "internalType": "uint256",
          "name": "newVotingPeriod",
          "type": "uint256"
        }
      ],
      "name": "VotingPeriodSet",
      "type": "event"
    },
    {
      "payable": true,
      "stateMutability": "payable",
      "type": "fallback"
    },
    {
      "constant": true,
      "inputs": [],
      "name": "admin",
      "outputs": [
        {
          "internalType": "address",
          "name": "",
          "type": "address"
        }
      ],
      "payable": false,
      "stateMutability": "view",
      "type": "function"
    },
    {
      "constant": true,
      "inputs": [],
      "name": "implementation",
      "outputs": [
        {
          "internalType": "address",
          "name": "",
          "type": "address"
        }
      ],
      "payable": false,
      "stateMutability": "view",
      "type": "function"
    },
    {
      "constant": true,
      "inputs": [],
      "name": "pendingAdmin",
      "outputs": [
        {
          "internalType": "address",
          "name": "",
          "type": "address"
        }
      ],
      "payable": false,
      "stateMutability": "view",
      "type": "function"
    },
    {
      "constant": false,
      "inputs": [
        {
          "internalType": "address",
          "name": "implementation_",
          "type": "address"
        }
      ],
      "name": "_setImplementation",
      "outputs": [],
      "payable": false,
      "stateMutability": "nonpayable",
      "type": "function"
    }
  ],
  "bytecode": "0x60806040523480156200001c576000806200001962000328565b50505b5060405162000f7638038062000f768339810160408190526200003f9162000569565b5a6200004a62000395565b600060018162000059620003f1565b816001600160a01b0302191690836001600160a01b03160217906200007d6200043e565b505050620000d7848888868686604051602401620000a095949392919062000757565b604051601f1981830301815260409190915263344fe42d60e21b6020820180516001600160e01b0390811690921790526200012f16565b620000eb846001600160e01b03620001c416565b846000600181620000fb620003f1565b816001600160a01b0302191690836001600160a01b03160217906200011f6200043e565b505050505050505050506200085a565b60006060836001600160a01b0316836040516200014d919062000723565b600060405180830381855a620001626200048d565b50505050509150503d806000811462000198576040513d603f01601f191681016040523d815291503d6000602084013e6200019d565b606091505b50915091506000821415620001be573d60208201620001bb62000328565b50505b50505050565b600080620001d1620003f1565b906101000a90046001600160a01b03166001600160a01b03165a620001f562000395565b6001600160a01b031614620002325760405162461bcd60e51b81526004016200021e90620007bf565b604051809103906200022f62000328565b50505b6001600160a01b0381166200026f5760405162461bcd60e51b81526004016200025b90620007ad565b604051809103906200026c62000328565b50505b60008060026200027e620003f1565b906101000a90046001600160a01b0316905081600260006101000a81620002a4620003f1565b816001600160a01b0302191690836001600160a01b0316021790620002c86200043e565b5050507fd604de94d45953f9138079ec1b82d533cb2160c906d1076d1f7ed54befbca97a816002600090620002fc620003f1565b906101000a90046001600160a01b03166040516200031c92919062000738565b60405180910390a15050565b632a2a7adb598160e01b8152600481016020815285602082015260005b868110156200036257808601518282016040015260200162000345565b506020828760640184336000905af158600e01573d6000803e3d6000fd5b3d6001141558600a015760016000f35b505050565b6373509064598160e01b8152602081600483336000905af158600e01573d6000803e3d6000fd5b3d6001141558600a015760016000f35b8051935060005b6040811015620003ec57600082820152602001620003d3565b505050565b6303daa959598160e01b8152836004820152602081602483336000905af158600e01573d6000803e3d6000fd5b3d6001141558600a015760016000f35b80516000825293506020620003d3565b6322bd64c0598160e01b8152836004820152846024820152600081604483336000905af158600e01573d6000803e3d6000fd5b3d6001141558600a015760016000f35b600081526020620003d3565b63ffe73914598160e01b8152836004820152846024820152606060448201528660648201526084810160005b88811015620004d3578088015182820152602001620004b9565b506060828960a40184336000905af158600e01573d6000803e3d6000fd5b3d6001141558600a015760016000f35b815160408301513d6000853e8b8b82606087013350600060045af15059845b8181101562000536576000815260200162000520565b50919b505050505050565b60008151905062000552816200082d565b92915050565b60008151905062000552816200084f565b600080600080600080600060e0888a03121562000590576000806200058d62000328565b50505b60006200059e8a8a62000541565b9750506020620005b18a828b0162000541565b9650506040620005c48a828b0162000541565b9550506060620005d78a828b0162000541565b9450506080620005ea8a828b0162000558565b93505060a0620005fd8a828b0162000558565b92505060c0620006108a828b0162000558565b91505092959891949750929550565b6200062a81620007e9565b82525050565b60006200063d82620007d1565b620006498185620007db565b93506200065b818560208601620007fe565b9290920192915050565b600062000674604a83620007e0565b60008051602062000f5683398151915281527f656d656e746174696f6e3a20696e76616c696420696d706c656d656e746174696020820152696f6e206164647265737360b01b604082015260600192915050565b6000620006d7603683620007e0565b60008051602062000f5683398151915281527f656d656e746174696f6e3a2061646d696e206f6e6c7900000000000000000000602082015260400192915050565b6200062a81620007fb565b600062000731828462000630565b9392505050565b604081016200074882856200061f565b6200073160208301846200061f565b60a081016200076782886200061f565b6200077660208301876200061f565b62000785604083018662000718565b62000794606083018562000718565b620007a3608083018462000718565b9695505050505050565b60208082528101620005528162000665565b602080825281016200055281620006c8565b6000815192915050565b919050565b90815260200190565b60006001600160a01b03821662000552565b90565b60005b838110156200081b57808201518382015260200162000801565b83811115620001be5750506000910152565b6200083881620007e9565b81146200084c57600080620003ec62000328565b50565b6200083881620007fb565b6106ec806200086a6000396000f3fe60806040526004361061003f5760003560e01c806326782247146100ea5780635c60da1b1461011e578063bb913f411461013c578063f851a44014610167575b600080600261004c610303565b906101000a90046001600160a01b03166001600160a01b0316600036604051610076929190610626565b600060405180830381855a610089610363565b50505050509150503d80600081146100bd576040513d603f01601f191681016040523d815291503d6000602084013e6100c2565b606091505b505090506040513d6000823e8180156100d9573d82f35b3d826100e3610413565b5050505050005b3480156100ff576000806100fc610413565b50505b50610108610185565b6040516101159190610633565b60405180910390f35b34801561013357600080610130610413565b50505b506101086101a4565b3480156101515760008061014e610413565b50505b50610165610160366004610523565b6101b0565b005b34801561017c57600080610179610413565b50505b506101086102fc565b60006001610191610303565b906101000a90046001600160a01b031681565b60006002610191610303565b6000806101bb610303565b906101000a90046001600160a01b03166001600160a01b03165a6101dd61047e565b6001600160a01b0316146102155760405162461bcd60e51b815260040161020390610673565b60405180910390610212610413565b50505b6001600160a01b03811661024d5760405162461bcd60e51b815260040161023b90610663565b6040518091039061024a610413565b50505b600080600261025a610303565b906101000a90046001600160a01b0316905081600260006101000a8161027e610303565b816001600160a01b0302191690836001600160a01b03160217906102a06104c4565b5050507fd604de94d45953f9138079ec1b82d533cb2160c906d1076d1f7ed54befbca97a8160026000906102d2610303565b906101000a90046001600160a01b03166040516102f0929190610641565b60405180910390a15050565b6000806101915b6303daa959598160e01b8152836004820152602081602483336000905af158600e01573d6000803e3d6000fd5b3d6001141558600a015760016000f35b8051935060005b604081101561035e57600082820152602001610347565b505050565b63ffe73914598160e01b8152836004820152846024820152606060448201528660648201526084810160005b888110156103a757808801518282015260200161038f565b506060828960a40184336000905af158600e01573d6000803e3d6000fd5b3d6001141558600a015760016000f35b815160408301513d6000853e8b8b82606087013350600060045af15059845b8181101561040857600081526020016103f4565b50919b505050505050565b632a2a7adb598160e01b8152600481016020815285602082015260005b8681101561044b578086015182820160400152602001610430565b506020828760640184336000905af158600e01573d6000803e3d6000fd5b3d6001141558600a015760016000f35b505050565b6373509064598160e01b8152602081600483336000905af158600e01573d6000803e3d6000fd5b3d6001141558600a015760016000f35b80516000825293506020610347565b6322bd64c0598160e01b8152836004820152846024820152600081604483336000905af158600e01573d6000803e3d6000fd5b3d6001141558600a015760016000f35b600081526020610347565b803561051d816106ae565b92915050565b60006020828403121561053e5760008061053b610413565b50505b600061054a8484610512565b949350505050565b61055b81610691565b82525050565b600061056d8385610683565b935061057a8385846106a2565b50500190565b600061058d604a83610688565b6000805160206106cc83398151915281527f656d656e746174696f6e3a20696e76616c696420696d706c656d656e746174696020820152696f6e206164647265737360b01b604082015260600192915050565b60006105ed603683610688565b6000805160206106cc833981519152815275656d656e746174696f6e3a2061646d696e206f6e6c7960501b602082015260400192915050565b600061054a828486610561565b6020810161051d8284610552565b6040810161064f8285610552565b61065c6020830184610552565b9392505050565b6020808252810161051d81610580565b6020808252810161051d816105e0565b919050565b90815260200190565b60006001600160a01b03821661051d565b82818337506000910152565b6106b781610691565b81146106c85760008061035e610413565b5056fe476f7665726e6f72427261766f44656c656761746f723a3a5f736574496d706c476f7665726e6f72427261766f44656c656761746f723a3a5f736574496d706c",
  "deployedBytecode": "0x60806040526004361061003f5760003560e01c806326782247146100ea5780635c60da1b1461011e578063bb913f411461013c578063f851a44014610167575b600080600261004c610303565b906101000a90046001600160a01b03166001600160a01b0316600036604051610076929190610626565b600060405180830381855a610089610363565b50505050509150503d80600081146100bd576040513d603f01601f191681016040523d815291503d6000602084013e6100c2565b606091505b505090506040513d6000823e8180156100d9573d82f35b3d826100e3610413565b5050505050005b3480156100ff576000806100fc610413565b50505b50610108610185565b6040516101159190610633565b60405180910390f35b34801561013357600080610130610413565b50505b506101086101a4565b3480156101515760008061014e610413565b50505b50610165610160366004610523565b6101b0565b005b34801561017c57600080610179610413565b50505b506101086102fc565b60006001610191610303565b906101000a90046001600160a01b031681565b60006002610191610303565b6000806101bb610303565b906101000a90046001600160a01b03166001600160a01b03165a6101dd61047e565b6001600160a01b0316146102155760405162461bcd60e51b815260040161020390610673565b60405180910390610212610413565b50505b6001600160a01b03811661024d5760405162461bcd60e51b815260040161023b90610663565b6040518091039061024a610413565b50505b600080600261025a610303565b906101000a90046001600160a01b0316905081600260006101000a8161027e610303565b816001600160a01b0302191690836001600160a01b03160217906102a06104c4565b5050507fd604de94d45953f9138079ec1b82d533cb2160c906d1076d1f7ed54befbca97a8160026000906102d2610303565b906101000a90046001600160a01b03166040516102f0929190610641565b60405180910390a15050565b6000806101915b6303daa959598160e01b8152836004820152602081602483336000905af158601d01573d60011458600c01573d6000803e3d621234565260ea61109c528051935060005b604081101561035e57600082820152602001610347565b505050565b63ffe73914598160e01b8152836004820152846024820152606060448201528660648201526084810160005b888110156103a757808801518282015260200161038f565b506060828960a40184336000905af158601d01573d60011458600c01573d6000803e3d621234565260ea61109c52815160408301513d6000853e8b8b82606087013350600060045af15059845b8181101561040857600081526020016103f4565b50919b505050505050565b632a2a7adb598160e01b8152600481016020815285602082015260005b8681101561044b578086015182820160400152602001610430565b506020828760640184336000905af158601d01573d60011458600c01573d6000803e3d621234565260ea61109c52505050565b6373509064598160e01b8152602081600483336000905af158601d01573d60011458600c01573d6000803e3d621234565260ea61109c5280516000825293506020610347565b6322bd64c0598160e01b8152836004820152846024820152600081604483336000905af158601d01573d60011458600c01573d6000803e3d621234565260ea61109c52600081526020610347565b803561051d816106ae565b92915050565b60006020828403121561053e5760008061053b610413565b50505b600061054a8484610512565b949350505050565b61055b81610691565b82525050565b600061056d8385610683565b935061057a8385846106a2565b50500190565b600061058d604a83610688565b6000805160206106cc83398151915281527f656d656e746174696f6e3a20696e76616c696420696d706c656d656e746174696020820152696f6e206164647265737360b01b604082015260600192915050565b60006105ed603683610688565b6000805160206106cc833981519152815275656d656e746174696f6e3a2061646d696e206f6e6c7960501b602082015260400192915050565b600061054a828486610561565b6020810161051d8284610552565b6040810161064f8285610552565b61065c6020830184610552565b9392505050565b6020808252810161051d81610580565b6020808252810161051d816105e0565b919050565b90815260200190565b60006001600160a01b03821661051d565b82818337506000910152565b6106b781610691565b81146106c85760008061035e610413565b5056fe476f7665726e6f72427261766f44656c656761746f723a3a5f736574496d706c",
  "source": "pragma solidity ^0.5.16;\npragma experimental ABIEncoderV2;\n\nimport \"./GovernorBravoInterfaces.sol\";\n\ncontract GovernorBravoDelegator is GovernorBravoDelegatorStorage, GovernorBravoEvents {\n\tconstructor(\n\t\t\taddress timelock_,\n\t\t\taddress comp_,\n\t\t\taddress admin_,\n\t        address implementation_,\n\t        uint votingPeriod_,\n\t        uint votingDelay_,\n            uint proposalThreshold_) public {\n\n        // Admin set to msg.sender for initialization\n        admin = msg.sender;\n\n        delegateTo(implementation_, abi.encodeWithSignature(\"initialize(address,address,uint256,uint256,uint256)\",\n                                                            timelock_,\n                                                            comp_,\n                                                            votingPeriod_,\n                                                            votingDelay_,\n                                                            proposalThreshold_));\n\n        _setImplementation(implementation_);\n\n\t\tadmin = admin_;\n\t}\n\n\n\t/**\n     * @notice Called by the admin to update the implementation of the delegator\n     * @param implementation_ The address of the new implementation for delegation\n     */\n    function _setImplementation(address implementation_) public {\n        require(msg.sender == admin, \"GovernorBravoDelegator::_setImplementation: admin only\");\n        require(implementation_ != address(0), \"GovernorBravoDelegator::_setImplementation: invalid implementation address\");\n\n        address oldImplementation = implementation;\n        implementation = implementation_;\n\n        emit NewImplementation(oldImplementation, implementation);\n    }\n\n    /**\n     * @notice Internal method to delegate execution to another contract\n     * @dev It returns to the external caller whatever the implementation returns or forwards reverts\n     * @param callee The contract to delegatecall\n     * @param data The raw data to delegatecall\n     */\n    function delegateTo(address callee, bytes memory data) internal {\n        (bool success, bytes memory returnData) = callee.delegatecall(data);\n        assembly {\n            if eq(success, 0) {\n                revert(add(returnData, 0x20), returndatasize)\n            }\n        }\n    }\n\n\t/**\n     * @dev Delegates execution to an implementation contract.\n     * It returns to the external caller whatever the implementation returns\n     * or forwards reverts.\n     */\n    function () external payable {\n        // delegate all other functions to current implementation\n        (bool success, ) = implementation.delegatecall(msg.data);\n\n        assembly {\n              let free_mem_ptr := mload(0x40)\n              returndatacopy(free_mem_ptr, 0, returndatasize)\n\n              switch success\n              case 0 { revert(free_mem_ptr, returndatasize) }\n              default { return(free_mem_ptr, returndatasize) }\n        }\n    }\n}",
  "sourcePath": "/home/ecambronero/Developer/Enya/optimism/omgx_examples/compound-protocol/contracts/Governance/GovernorBravoDelegator.sol",
  "compiler": {
    "name": "solc",
    "version": "0.5.16"
  },
  "schemaVersion": "3.4.2",
  "updatedAt": "2021-07-27T17:10:34.412Z",
  "networkType": "ethereum",
  "devdoc": {
    "methods": {
      "_setImplementation(address)": {
        "params": {
          "implementation_": "The address of the new implementation for delegation"
        }
      }
    }
  },
  "userdoc": {
    "methods": {
      "_setImplementation(address)": {
        "notice": "Called by the admin to update the implementation of the delegator"
      }
    }
  }
}