{
  "contractName": "GovernorBravoDelegate",
  "abi": [
    {
      "anonymous": false,
      "inputs": [
        {
          "indexed": false,
          "internalType": "address",
          "name": "recipient",
          "type": "address"
        },
        {
          "indexed": false,
          "internalType": "uint256",
          "name": "amount",
          "type": "uint256"
        }
      ],
      "name": "CompGranted",
      "type": "event"
    },
    {
      "anonymous": false,
      "inputs": [
        {
          "indexed": false,
          "internalType": "address",
          "name": "oldAdmin",
          "type": "address"
        },
        {
          "indexed": false,
          "internalType": "address",
          "name": "newAdmin",
          "type": "address"
        }
      ],
      "name": "NewAdmin",
      "type": "event"
    },
    {
      "anonymous": false,
      "inputs": [
        {
          "indexed": false,
          "internalType": "address",
          "name": "oldImplementation",
          "type": "address"
        },
        {
          "indexed": false,
          "internalType": "address",
          "name": "newImplementation",
          "type": "address"
        }
      ],
      "name": "NewImplementation",
      "type": "event"
    },
    {
      "anonymous": false,
      "inputs": [
        {
          "indexed": false,
          "internalType": "address",
          "name": "oldPendingAdmin",
          "type": "address"
        },
        {
          "indexed": false,
          "internalType": "address",
          "name": "newPendingAdmin",
          "type": "address"
        }
      ],
      "name": "NewPendingAdmin",
      "type": "event"
    },
    {
      "anonymous": false,
      "inputs": [
        {
          "indexed": false,
          "internalType": "uint256",
          "name": "id",
          "type": "uint256"
        }
      ],
      "name": "ProposalCanceled",
      "type": "event"
    },
    {
      "anonymous": false,
      "inputs": [
        {
          "indexed": false,
          "internalType": "uint256",
          "name": "id",
          "type": "uint256"
        },
        {
          "indexed": false,
          "internalType": "address",
          "name": "proposer",
          "type": "address"
        },
        {
          "indexed": false,
          "internalType": "address[]",
          "name": "targets",
          "type": "address[]"
        },
        {
          "indexed": false,
          "internalType": "uint256[]",
          "name": "values",
          "type": "uint256[]"
        },
        {
          "indexed": false,
          "internalType": "string[]",
          "name": "signatures",
          "type": "string[]"
        },
        {
          "indexed": false,
          "internalType": "bytes[]",
          "name": "calldatas",
          "type": "bytes[]"
        },
        {
          "indexed": false,
          "internalType": "uint256",
          "name": "startBlock",
          "type": "uint256"
        },
        {
          "indexed": false,
          "internalType": "uint256",
          "name": "endBlock",
          "type": "uint256"
        },
        {
          "indexed": false,
          "internalType": "string",
          "name": "description",
          "type": "string"
        }
      ],
      "name": "ProposalCreated",
      "type": "event"
    },
    {
      "anonymous": false,
      "inputs": [
        {
          "indexed": false,
          "internalType": "uint256",
          "name": "id",
          "type": "uint256"
        }
      ],
      "name": "ProposalExecuted",
      "type": "event"
    },
    {
      "anonymous": false,
      "inputs": [
        {
          "indexed": false,
          "internalType": "uint256",
          "name": "id",
          "type": "uint256"
        },
        {
          "indexed": false,
          "internalType": "uint256",
          "name": "eta",
          "type": "uint256"
        }
      ],
      "name": "ProposalQueued",
      "type": "event"
    },
    {
      "anonymous": false,
      "inputs": [
        {
          "indexed": false,
          "internalType": "uint256",
          "name": "oldProposalThreshold",
          "type": "uint256"
        },
        {
          "indexed": false,
          "internalType": "uint256",
          "name": "newProposalThreshold",
          "type": "uint256"
        }
      ],
      "name": "ProposalThresholdSet",
      "type": "event"
    },
    {
      "anonymous": false,
      "inputs": [
        {
          "indexed": true,
          "internalType": "address",
          "name": "voter",
          "type": "address"
        },
        {
          "indexed": false,
          "internalType": "uint256",
          "name": "proposalId",
          "type": "uint256"
        },
        {
          "indexed": false,
          "internalType": "uint8",
          "name": "support",
          "type": "uint8"
        },
        {
          "indexed": false,
          "internalType": "uint256",
          "name": "votes",
          "type": "uint256"
        },
        {
          "indexed": false,
          "internalType": "string",
          "name": "reason",
          "type": "string"
        }
      ],
      "name": "VoteCast",
      "type": "event"
    },
    {
      "anonymous": false,
      "inputs": [
        {
          "indexed": false,
          "internalType": "uint256",
          "name": "oldVotingDelay",
          "type": "uint256"
        },
        {
          "indexed": false,
          "internalType": "uint256",
          "name": "newVotingDelay",
          "type": "uint256"
        }
      ],
      "name": "VotingDelaySet",
      "type": "event"
    },
    {
      "anonymous": false,
      "inputs": [
        {
          "indexed": false,
          "internalType": "uint256",
          "name": "oldVotingPeriod",
          "type": "uint256"
        },
        {
          "indexed": false,
          "internalType": "uint256",
          "name": "newVotingPeriod",
          "type": "uint256"
        }
      ],
      "name": "VotingPeriodSet",
      "type": "event"
    },
    {
      "constant": true,
      "inputs": [],
      "name": "BALLOT_TYPEHASH",
      "outputs": [
        {
          "internalType": "bytes32",
          "name": "",
          "type": "bytes32"
        }
      ],
      "payable": false,
      "stateMutability": "view",
      "type": "function"
    },
    {
      "constant": true,
      "inputs": [],
      "name": "DOMAIN_TYPEHASH",
      "outputs": [
        {
          "internalType": "bytes32",
          "name": "",
          "type": "bytes32"
        }
      ],
      "payable": false,
      "stateMutability": "view",
      "type": "function"
    },
    {
      "constant": true,
      "inputs": [],
      "name": "MAX_PROPOSAL_THRESHOLD",
      "outputs": [
        {
          "internalType": "uint256",
          "name": "",
          "type": "uint256"
        }
      ],
      "payable": false,
      "stateMutability": "view",
      "type": "function"
    },
    {
      "constant": true,
      "inputs": [],
      "name": "MAX_VOTING_DELAY",
      "outputs": [
        {
          "internalType": "uint256",
          "name": "",
          "type": "uint256"
        }
      ],
      "payable": false,
      "stateMutability": "view",
      "type": "function"
    },
    {
      "constant": true,
      "inputs": [],
      "name": "MAX_VOTING_PERIOD",
      "outputs": [
        {
          "internalType": "uint256",
          "name": "",
          "type": "uint256"
        }
      ],
      "payable": false,
      "stateMutability": "view",
      "type": "function"
    },
    {
      "constant": true,
      "inputs": [],
      "name": "MIN_PROPOSAL_THRESHOLD",
      "outputs": [
        {
          "internalType": "uint256",
          "name": "",
          "type": "uint256"
        }
      ],
      "payable": false,
      "stateMutability": "view",
      "type": "function"
    },
    {
      "constant": true,
      "inputs": [],
      "name": "MIN_VOTING_DELAY",
      "outputs": [
        {
          "internalType": "uint256",
          "name": "",
          "type": "uint256"
        }
      ],
      "payable": false,
      "stateMutability": "view",
      "type": "function"
    },
    {
      "constant": true,
      "inputs": [],
      "name": "MIN_VOTING_PERIOD",
      "outputs": [
        {
          "internalType": "uint256",
          "name": "",
          "type": "uint256"
        }
      ],
      "payable": false,
      "stateMutability": "view",
      "type": "function"
    },
    {
      "constant": true,
      "inputs": [],
      "name": "admin",
      "outputs": [
        {
          "internalType": "address",
          "name": "",
          "type": "address"
        }
      ],
      "payable": false,
      "stateMutability": "view",
      "type": "function"
    },
    {
      "constant": true,
      "inputs": [],
      "name": "comp",
      "outputs": [
        {
          "internalType": "contract CompInterface",
          "name": "",
          "type": "address"
        }
      ],
      "payable": false,
      "stateMutability": "view",
      "type": "function"
    },
    {
      "constant": true,
      "inputs": [],
      "name": "implementation",
      "outputs": [
        {
          "internalType": "address",
          "name": "",
          "type": "address"
        }
      ],
      "payable": false,
      "stateMutability": "view",
      "type": "function"
    },
    {
      "constant": true,
      "inputs": [],
      "name": "initialProposalId",
      "outputs": [
        {
          "internalType": "uint256",
          "name": "",
          "type": "uint256"
        }
      ],
      "payable": false,
      "stateMutability": "view",
      "type": "function"
    },
    {
      "constant": true,
      "inputs": [
        {
          "internalType": "address",
          "name": "",
          "type": "address"
        }
      ],
      "name": "latestProposalIds",
      "outputs": [
        {
          "internalType": "uint256",
          "name": "",
          "type": "uint256"
        }
      ],
      "payable": false,
      "stateMutability": "view",
      "type": "function"
    },
    {
      "constant": true,
      "inputs": [],
      "name": "name",
      "outputs": [
        {
          "internalType": "string",
          "name": "",
          "type": "string"
        }
      ],
      "payable": false,
      "stateMutability": "view",
      "type": "function"
    },
    {
      "constant": true,
      "inputs": [],
      "name": "pendingAdmin",
      "outputs": [
        {
          "internalType": "address",
          "name": "",
          "type": "address"
        }
      ],
      "payable": false,
      "stateMutability": "view",
      "type": "function"
    },
    {
      "constant": true,
      "inputs": [],
      "name": "proposalCount",
      "outputs": [
        {
          "internalType": "uint256",
          "name": "",
          "type": "uint256"
        }
      ],
      "payable": false,
      "stateMutability": "view",
      "type": "function"
    },
    {
      "constant": true,
      "inputs": [],
      "name": "proposalMaxOperations",
      "outputs": [
        {
          "internalType": "uint256",
          "name": "",
          "type": "uint256"
        }
      ],
      "payable": false,
      "stateMutability": "view",
      "type": "function"
    },
    {
      "constant": true,
      "inputs": [],
      "name": "proposalThreshold",
      "outputs": [
        {
          "internalType": "uint256",
          "name": "",
          "type": "uint256"
        }
      ],
      "payable": false,
      "stateMutability": "view",
      "type": "function"
    },
    {
      "constant": true,
      "inputs": [
        {
          "internalType": "uint256",
          "name": "",
          "type": "uint256"
        }
      ],
      "name": "proposals",
      "outputs": [
        {
          "internalType": "uint256",
          "name": "id",
          "type": "uint256"
        },
        {
          "internalType": "address",
          "name": "proposer",
          "type": "address"
        },
        {
          "internalType": "uint256",
          "name": "eta",
          "type": "uint256"
        },
        {
          "internalType": "uint256",
          "name": "startBlock",
          "type": "uint256"
        },
        {
          "internalType": "uint256",
          "name": "endBlock",
          "type": "uint256"
        },
        {
          "internalType": "uint256",
          "name": "forVotes",
          "type": "uint256"
        },
        {
          "internalType": "uint256",
          "name": "againstVotes",
          "type": "uint256"
        },
        {
          "internalType": "uint256",
          "name": "abstainVotes",
          "type": "uint256"
        },
        {
          "internalType": "bool",
          "name": "canceled",
          "type": "bool"
        },
        {
          "internalType": "bool",
          "name": "executed",
          "type": "bool"
        }
      ],
      "payable": false,
      "stateMutability": "view",
      "type": "function"
    },
    {
      "constant": true,
      "inputs": [],
      "name": "quorumVotes",
      "outputs": [
        {
          "internalType": "uint256",
          "name": "",
          "type": "uint256"
        }
      ],
      "payable": false,
      "stateMutability": "view",
      "type": "function"
    },
    {
      "constant": true,
      "inputs": [],
      "name": "timelock",
      "outputs": [
        {
          "internalType": "contract TimelockInterface",
          "name": "",
          "type": "address"
        }
      ],
      "payable": false,
      "stateMutability": "view",
      "type": "function"
    },
    {
      "constant": true,
      "inputs": [],
      "name": "votingDelay",
      "outputs": [
        {
          "internalType": "uint256",
          "name": "",
          "type": "uint256"
        }
      ],
      "payable": false,
      "stateMutability": "view",
      "type": "function"
    },
    {
      "constant": true,
      "inputs": [],
      "name": "votingPeriod",
      "outputs": [
        {
          "internalType": "uint256",
          "name": "",
          "type": "uint256"
        }
      ],
      "payable": false,
      "stateMutability": "view",
      "type": "function"
    },
    {
      "constant": false,
      "inputs": [
        {
          "internalType": "address",
          "name": "timelock_",
          "type": "address"
        },
        {
          "internalType": "address",
          "name": "comp_",
          "type": "address"
        },
        {
          "internalType": "uint256",
          "name": "votingPeriod_",
          "type": "uint256"
        },
        {
          "internalType": "uint256",
          "name": "votingDelay_",
          "type": "uint256"
        },
        {
          "internalType": "uint256",
          "name": "proposalThreshold_",
          "type": "uint256"
        }
      ],
      "name": "initialize",
      "outputs": [],
      "payable": false,
      "stateMutability": "nonpayable",
      "type": "function"
    },
    {
      "constant": false,
      "inputs": [
        {
          "internalType": "address[]",
          "name": "targets",
          "type": "address[]"
        },
        {
          "internalType": "uint256[]",
          "name": "values",
          "type": "uint256[]"
        },
        {
          "internalType": "string[]",
          "name": "signatures",
          "type": "string[]"
        },
        {
          "internalType": "bytes[]",
          "name": "calldatas",
          "type": "bytes[]"
        },
        {
          "internalType": "string",
          "name": "description",
          "type": "string"
        }
      ],
      "name": "propose",
      "outputs": [
        {
          "internalType": "uint256",
          "name": "",
          "type": "uint256"
        }
      ],
      "payable": false,
      "stateMutability": "nonpayable",
      "type": "function"
    },
    {
      "constant": false,
      "inputs": [
        {
          "internalType": "uint256",
          "name": "proposalId",
          "type": "uint256"
        }
      ],
      "name": "queue",
      "outputs": [],
      "payable": false,
      "stateMutability": "nonpayable",
      "type": "function"
    },
    {
      "constant": false,
      "inputs": [
        {
          "internalType": "uint256",
          "name": "proposalId",
          "type": "uint256"
        }
      ],
      "name": "execute",
      "outputs": [],
      "payable": true,
      "stateMutability": "payable",
      "type": "function"
    },
    {
      "constant": false,
      "inputs": [
        {
          "internalType": "uint256",
          "name": "proposalId",
          "type": "uint256"
        }
      ],
      "name": "cancel",
      "outputs": [],
      "payable": false,
      "stateMutability": "nonpayable",
      "type": "function"
    },
    {
      "constant": true,
      "inputs": [
        {
          "internalType": "uint256",
          "name": "proposalId",
          "type": "uint256"
        }
      ],
      "name": "getActions",
      "outputs": [
        {
          "internalType": "address[]",
          "name": "targets",
          "type": "address[]"
        },
        {
          "internalType": "uint256[]",
          "name": "values",
          "type": "uint256[]"
        },
        {
          "internalType": "string[]",
          "name": "signatures",
          "type": "string[]"
        },
        {
          "internalType": "bytes[]",
          "name": "calldatas",
          "type": "bytes[]"
        }
      ],
      "payable": false,
      "stateMutability": "view",
      "type": "function"
    },
    {
      "constant": true,
      "inputs": [
        {
          "internalType": "uint256",
          "name": "proposalId",
          "type": "uint256"
        },
        {
          "internalType": "address",
          "name": "voter",
          "type": "address"
        }
      ],
      "name": "getReceipt",
      "outputs": [
        {
          "components": [
            {
              "internalType": "bool",
              "name": "hasVoted",
              "type": "bool"
            },
            {
              "internalType": "uint8",
              "name": "support",
              "type": "uint8"
            },
            {
              "internalType": "uint96",
              "name": "votes",
              "type": "uint96"
            }
          ],
          "internalType": "struct GovernorBravoDelegateStorageV1.Receipt",
          "name": "",
          "type": "tuple"
        }
      ],
      "payable": false,
      "stateMutability": "view",
      "type": "function"
    },
    {
      "constant": true,
      "inputs": [
        {
          "internalType": "uint256",
          "name": "proposalId",
          "type": "uint256"
        }
      ],
      "name": "state",
      "outputs": [
        {
          "internalType": "enum GovernorBravoDelegateStorageV1.ProposalState",
          "name": "",
          "type": "uint8"
        }
      ],
      "payable": false,
      "stateMutability": "view",
      "type": "function"
    },
    {
      "constant": false,
      "inputs": [
        {
          "internalType": "uint256",
          "name": "proposalId",
          "type": "uint256"
        },
        {
          "internalType": "uint8",
          "name": "support",
          "type": "uint8"
        }
      ],
      "name": "castVote",
      "outputs": [],
      "payable": false,
      "stateMutability": "nonpayable",
      "type": "function"
    },
    {
      "constant": false,
      "inputs": [
        {
          "internalType": "uint256",
          "name": "proposalId",
          "type": "uint256"
        },
        {
          "internalType": "uint8",
          "name": "support",
          "type": "uint8"
        },
        {
          "internalType": "string",
          "name": "reason",
          "type": "string"
        }
      ],
      "name": "castVoteWithReason",
      "outputs": [],
      "payable": false,
      "stateMutability": "nonpayable",
      "type": "function"
    },
    {
      "constant": false,
      "inputs": [
        {
          "internalType": "uint256",
          "name": "proposalId",
          "type": "uint256"
        },
        {
          "internalType": "uint8",
          "name": "support",
          "type": "uint8"
        },
        {
          "internalType": "uint8",
          "name": "v",
          "type": "uint8"
        },
        {
          "internalType": "bytes32",
          "name": "r",
          "type": "bytes32"
        },
        {
          "internalType": "bytes32",
          "name": "s",
          "type": "bytes32"
        }
      ],
      "name": "castVoteBySig",
      "outputs": [],
      "payable": false,
      "stateMutability": "nonpayable",
      "type": "function"
    },
    {
      "constant": false,
      "inputs": [
        {
          "internalType": "uint256",
          "name": "newVotingDelay",
          "type": "uint256"
        }
      ],
      "name": "_setVotingDelay",
      "outputs": [],
      "payable": false,
      "stateMutability": "nonpayable",
      "type": "function"
    },
    {
      "constant": false,
      "inputs": [
        {
          "internalType": "uint256",
          "name": "newVotingPeriod",
          "type": "uint256"
        }
      ],
      "name": "_setVotingPeriod",
      "outputs": [],
      "payable": false,
      "stateMutability": "nonpayable",
      "type": "function"
    },
    {
      "constant": false,
      "inputs": [
        {
          "internalType": "uint256",
          "name": "newProposalThreshold",
          "type": "uint256"
        }
      ],
      "name": "_setProposalThreshold",
      "outputs": [],
      "payable": false,
      "stateMutability": "nonpayable",
      "type": "function"
    },
    {
      "constant": false,
      "inputs": [
        {
          "internalType": "address",
          "name": "governorAlpha",
          "type": "address"
        }
      ],
      "name": "_initiate",
      "outputs": [],
      "payable": false,
      "stateMutability": "nonpayable",
      "type": "function"
    },
    {
      "constant": false,
      "inputs": [
        {
          "internalType": "address",
          "name": "newPendingAdmin",
          "type": "address"
        }
      ],
      "name": "_setPendingAdmin",
      "outputs": [],
      "payable": false,
      "stateMutability": "nonpayable",
      "type": "function"
    },
    {
      "constant": false,
      "inputs": [],
      "name": "_acceptAdmin",
      "outputs": [],
      "payable": false,
      "stateMutability": "nonpayable",
      "type": "function"
    },
    {
      "constant": false,
      "inputs": [
        {
          "internalType": "address",
          "name": "recipient",
          "type": "address"
        },
        {
          "internalType": "uint256",
          "name": "amount",
          "type": "uint256"
        }
      ],
      "name": "_grantComp",
      "outputs": [],
      "payable": false,
      "stateMutability": "nonpayable",
      "type": "function"
    }
  ],
  "bytecode": "0x60806040523480156200001c576000806200001962000023565b50505b5062000090565b632a2a7adb598160e01b8152600481016020815285602082015260005b868110156200005d57808601518282016040015260200162000040565b506020828760640184336000905af158600e01573d6000803e3d6000fd5b3d6001141558600a015760016000f35b505050565b615ca080620000a06000396000f3fe6080604052600436106101d65760003560e01c8063013cf08b146101e457806302a251a31461022c57806306fdde03146102575780630ea2d98c14610282578063109d0af8146102ad57806317977c61146102d857806317ba1b8b146103015780631dfb1b5a1461032a57806320606b7014610353578063215809ca1461037157806324bc1a641461038f57806325fd935a146103ad57806326782247146103cb57806327efe3cb146103f6578063328dd9821461041f5780633932abb1146104585780633bccf4fd146104765780633e4f49e61461049f57806340e58ee5146104d557806356781388146104fe5780635c60da1b14610527578063791f5d23146105455780637b3c71d3146105635780637bdbe4d01461058c578063a64e024a146105aa578063b1126263146105c8578063b58131b0146105e6578063b71d1a0c14610604578063d13f90b41461062d578063d33219b414610656578063da35c66414610674578063da95691a14610692578063ddf0b009146106bb578063deaaa7cc146106e4578063e23a9a5214610702578063e48083fe14610738578063e9c714f214610756578063f851a44014610774578063f9d28b8014610792578063fc4eee42146107bb578063fe0d94c1146107d9575b6000806101e1613406565b50505b3480156101f9576000806101f6613406565b50505b5061020d61020836600461422a565b6107ec565b6040516102239a999897969594939291906158cc565b60405180910390f35b3480156102415760008061023e613406565b50505b5061024a6108aa565b60405161022391906154e9565b34801561026c57600080610269613406565b50505b506102756108b7565b60405161022391906155a5565b34801561029757600080610294613406565b50505b506102ab6102a636600461422a565b6108e8565b005b3480156102c2576000806102bf613406565b50505b506102cb6109f3565b6040516102239190615589565b3480156102ed576000806102ea613406565b50505b5061024a6102fc366004613f96565b610a12565b34801561031657600080610313613406565b50505b506102ab61032536600461422a565b610a2a565b34801561033f5760008061033c613406565b50505b506102ab61034e36600461422a565b610b2a565b34801561036857600080610365613406565b50505b5061024a610c19565b34801561038657600080610383613406565b50505b5061024a610c30565b3480156103a4576000806103a1613406565b50505b5061024a610c36565b3480156103c2576000806103bf613406565b50505b5061024a610c44565b3480156103e0576000806103dd613406565b50505b506103e9610c52565b60405161022391906153af565b34801561040b57600080610408613406565b50505b506102ab61041a366004614043565b610c5e565b34801561043457600080610431613406565b50505b5061044861044336600461422a565b610d3f565b604051610223949392919061549c565b34801561046d5760008061046a613406565b50505b5061024a611065565b34801561048b57600080610488613406565b50505b506102ab61049a36600461433c565b61106f565b3480156104b4576000806104b1613406565b50505b506104c86104c336600461422a565b61129d565b6040516102239190615597565b3480156104ea576000806104e7613406565b50505b506102ab6104f936600461422a565b6114dd565b34801561051357600080610510613406565b50505b506102ab61052236600461428a565b61186a565b34801561053c57600080610539613406565b50505b506103e96118bb565b34801561055a57600080610557613406565b50505b5061024a6118c7565b34801561057857600080610575613406565b50505b506102ab6105873660046142c3565b6118d5565b3480156105a15760008061059e613406565b50505b5061024a61192c565b3480156105bf576000806105bc613406565b50505b5061024a611931565b3480156105dd576000806105da613406565b50505b5061024a611938565b3480156105fb576000806105f8613406565b50505b5061024a61193e565b34801561061957600080610616613406565b50505b506102ab610628366004613f96565b611948565b3480156106425760008061063f613406565b50505b506102ab610651366004613fc5565b611a22565b34801561066b57600080610668613406565b50505b506102cb611cc3565b34801561068957600080610686613406565b50505b5061024a611ccf565b3480156106a7576000806106a4613406565b50505b5061024a6106b6366004614086565b611cd9565b3480156106d0576000806106cd613406565b50505b506102ab6106df36600461422a565b6122b2565b3480156106f9576000806106f6613406565b50505b5061024a6125de565b34801561071757600080610714613406565b50505b5061072b610726366004614251565b6125ea565b6040516102239190615816565b34801561074d5760008061074a613406565b50505b5061024a61268b565b34801561076b57600080610768613406565b50505b506102ab612690565b34801561078957600080610786613406565b50505b506103e961286b565b3480156107a7576000806107a4613406565b50505b506102ab6107b6366004613f96565b612876565b3480156107d0576000806107cd613406565b50505b5061024a612a6a565b6102ab6107e736600461422a565b612a74565b600a602052806000526040600020905080610805613471565b90600060018201610814613471565b906101000a90046001600160a01b03169080600201610831613471565b908060070161083e613471565b908060080161084b613471565b9080600901610858613471565b9080600a01610865613471565b9080600b01610872613471565b906000600c8201610881613471565b906101000a900460ff169080600c0160019061089b613471565b906101000a900460ff1690508a565b60046108b4613471565b81565b604051604080820190526017815276436f6d706f756e6420476f7665726e6f7220427261766f60481b602082015281565b6000806108f3613471565b906101000a90046001600160a01b03166001600160a01b03165a6109156134d1565b6001600160a01b03161461094d5760405162461bcd60e51b815260040161093b90615616565b6040518091039061094a613406565b50505b6116808110158015610962575062013b008111155b6109905760405162461bcd60e51b815260040161097e90615656565b6040518091039061098d613406565b50505b6000600461099c613471565b9050818060046109aa613517565b5050507f7e3f7f0708a84de9203036abaa450dccc85ad5ff52f78c170f3edb55cf5e88288160046109d9613471565b6040516109e7929190615952565b60405180910390a15050565b600060096109ff613471565b906101000a90046001600160a01b031681565b600b60205280600052604060002090506108b4613471565b600080610a35613471565b906101000a90046001600160a01b03166001600160a01b03165a610a576134d1565b6001600160a01b031614610a8f5760405162461bcd60e51b8152600401610a7d906157d6565b60405180910390610a8c613406565b50505b690a968163f0a57b4000008110158015610ab3575069152d02c7e14af68000008111155b610ae15760405162461bcd60e51b8152600401610acf906156f6565b60405180910390610ade613406565b50505b60006005610aed613471565b905081806005610afb613517565b5050507fccb45da8d5717e6c4544694297c4ba5cf151d455c9bb0ed4fc7a38411bc054618160056109d9613471565b600080610b35613471565b906101000a90046001600160a01b03166001600160a01b03165a610b576134d1565b6001600160a01b031614610b8f5760405162461bcd60e51b8152600401610b7d90615636565b60405180910390610b8c613406565b50505b60018110158015610ba25750619d808111155b610bd05760405162461bcd60e51b8152600401610bbe90615686565b60405180910390610bcd613406565b50505b60006003610bdc613471565b905081806003610bea613517565b5050507fc565b045403dc03c2eea82b81a0465edad9e2e7fc4d97e11421c209da93d7a938160036109d9613471565b604051610c25906153a4565b604051809103902081565b61168081565b6954b40b1f852bda00000081565b69152d02c7e14af680000081565b600060016109ff613471565b600080610c69613471565b906101000a90046001600160a01b03166001600160a01b03165a610c8b6134d1565b6001600160a01b031614610cc35760405162461bcd60e51b8152600401610cb1906155d6565b60405180910390610cc0613406565b50505b6000610ccf8383612ce3565b90508015610d015760405162461bcd60e51b8152600401610cef906155c6565b60405180910390610cfe613406565b50505b7f98b2f82a3a07f223a0be64b3d0f47711c64dccd1feafb94aa28156b38cd9695c8383604051610d329291906153f3565b60405180910390a1505050565b6000818152600a602052606090819081908190604081209050806003018160040182600501836006018380610d72613471565b806020026020016040519081016040528181529190602083018280610d95613471565b8015610de257602002820191906000526020600020905b600082610db7613471565b906101000a90046001600160a01b03166001600160a01b031681526020019060010190808311610dac575b505050505093508280610df3613471565b806020026020016040519081016040528181529190602083018280610e16613471565b8015610e4857602002820191906000526020600020905b81610e36613471565b81526020019060010190808311610e2d575b505050505092508180610e59613471565b8060200260200160405190810160405281815291906000602084015b82821015610f4c5783829060005260206000200180610e92613471565b600181600116156101000203166002900480601f016020809104026020016040519081016040528181529190602083018280610ecc613471565b60018160011615610100020316600290048015610f385780601f10610f06576101008083610ef8613471565b040283529160200191610f38565b820191906000526020600020905b81610f1d613471565b81529060010190602001808311610f1457829003601f168201915b505050505081526020019060010190610e75565b5050505091508080610f5c613471565b8060200260200160405190810160405281815291906000602084015b8282101561104f5783829060005260206000200180610f95613471565b600181600116156101000203166002900480601f016020809104026020016040519081016040528181529190602083018280610fcf613471565b6001816001161561010002031660029004801561103b5780601f10611009576101008083610ffb613471565b04028352916020019161103b565b820191906000526020600020905b81611020613471565b8152906001019060200180831161101757829003601f168201915b505050505081526020019060010190610f78565b5050505090509450945094509450509193509193565b60036108b4613471565b600060405161107d906153a4565b6040518091039020604051604080820190526017815276436f6d706f756e6420476f7665726e6f7220427261766f60481b6020820152805190602001206110c2612ebb565b5a63996d79a5598160e01b8152602081600483336000905af158600e01573d6000803e3d6000fd5b3d6001141558600a015760016000f35b8051925060005b604081101561111857600082820152602001611101565b50505060405160200161112e94939291906154f7565b604051602081830303815290604052805190602001209050600060405161115490615368565b604051809103902087876040516020016111709392919061552c565b6040516020818303038152906040528051906020012090506000828260405160200161119d929190615373565b6040516020818303038152906040528051906020012090506000600182888888604051600081526020016040526040516111da9493929190615554565b6020604051602081039080840390855a6111f2613565565b5050505050158015611211573d6000803e3d600061120e613406565b50505b5050506020604051035190506001600160a01b0381166112555760405162461bcd60e51b8152600401611243906156b6565b60405180910390611252613406565b50505b806001600160a01b0316600080516020615c808339815191528a8a61127b858e8e612ece565b60405161128a939291906159a6565b60405180910390a2505050505050505050565b60008160076112aa613471565b101580156112c0575060066112bd613471565b82115b6112ee5760405162461bcd60e51b81526004016112dc906157e6565b604051809103906112eb613406565b50505b6000828152600a6020526040812090506000600c820161130c613471565b906101000a900460ff16156113255760029150506114d8565b80600701611331613471565b5a61133a613615565b116113495760009150506114d8565b80600801611355613471565b5a61135e613615565b1161136d5760019150506114d8565b80600a01611379613471565b81600901611385613471565b1115806113a657506954b40b1f852bda000000816009016113a4613471565b105b156113b55760039150506114d8565b806002016113c1613471565b6113cf5760049150506114d8565b6001600c82016113dd613471565b906101000a900460ff16156113f65760079150506114d8565b6114ba81600201611405613471565b60006008611411613471565b906101000a90046001600160a01b03166001600160a01b031663c1a287e26040518163ffffffff1660e01b8152600401602060405180830381868061145461365b565b15801561146957600080611466613406565b50505b505a611473613565565b5050505050158015611492573d6000803e3d600061148f613406565b50505b50505050604051601f3d908101601f191682016040526114b591908101906141bd565b6131a9565b5a6114c36136a7565b106114d25760069150506114d8565b60059150505b919050565b60076114e88261129d565b60078111156114f357fe5b14156115235760405162461bcd60e51b8152600401611511906157c6565b60405180910390611520613406565b50505b6000818152600a602052604081209050600060018201611541613471565b906101000a90046001600160a01b03166001600160a01b03165a6115636134d1565b6001600160a01b0316148061166d5750600561157d613471565b60006009611589613471565b6001600160a01b036101009290920a90041663782d6fe16000600185016115ae613471565b906101000a90046001600160a01b03166115d15a6115ca613615565b60016131e6565b6040518363ffffffff1660e01b81526004016115ee9291906153f3565b602060405180830381868061160161365b565b15801561161657600080611613613406565b50505b505a611620613565565b505050505015801561163f573d6000803e3d600061163c613406565b50505b50505050604051601f3d908101601f19168201604052611662919081019061438b565b6001600160601b0316105b61169b5760405162461bcd60e51b815260040161168990615766565b60405180910390611698613406565b50505b6001600c820181816116ab613471565b8160ff021916908315150217906116c0613517565b5060009150505b81600301806116d4613471565b905081101561183a57600060086116e9613471565b906101000a90046001600160a01b03166001600160a01b031663591fcdfe836003018381611715613471565b811061171d57fe5b90600052602060002001600090611732613471565b906101000a90046001600160a01b0316846004018481611750613471565b811061175857fe5b9060005260206000200161176a613471565b856005018581611778613471565b811061178057fe5b90600052602060002001866006018681611798613471565b81106117a057fe5b90600052602060002001876002016117b6613471565b6040518663ffffffff1660e01b81526004016117d695949392919061545b565b600060405180830381600087806117eb61365b565b158015611800576000806117fd613406565b50505b505a61180a6136ed565b50505050505015801561182a573d6000803e3d6000611827613406565b50505b5050600190920191506116c79050565b507f789cf55be980739dad1d0699b93b58e806b51c9d96619bfa8fe0a28abaa7b30c826040516109e791906154e9565b5a6118736134d1565b6001600160a01b0316600080516020615c8083398151915283836118a05a6118996134d1565b8787612ece565b6040516118af939291906159a6565b60405180910390a25050565b600060026109ff613471565b690a968163f0a57b40000081565b5a6118de6134d1565b6001600160a01b0316600080516020615c80833981519152858561190b5a6119046134d1565b8989612ece565b868660405161191e959493929190615960565b60405180910390a250505050565b600a81565b62013b0081565b619d8081565b60056108b4613471565b600080611953613471565b906101000a90046001600160a01b03166001600160a01b03165a6119756134d1565b6001600160a01b0316146119ad5760405162461bcd60e51b815260040161199b906155f6565b604051809103906119aa613406565b50505b60008060016119ba613471565b906101000a90046001600160a01b0316905081600160006101000a816119de613471565b816001600160a01b0302191690836001600160a01b0316021790611a00613517565b505050600080516020615c2083398151915281836040516109e79291906153d8565b6000806008611a2f613471565b906101000a90046001600160a01b03166001600160a01b031614611a775760405162461bcd60e51b8152600401611a65906155e6565b60405180910390611a74613406565b50505b600080611a82613471565b906101000a90046001600160a01b03166001600160a01b03165a611aa46134d1565b6001600160a01b031614611adc5760405162461bcd60e51b8152600401611aca906156e6565b60405180910390611ad9613406565b50505b6001600160a01b038516611b145760405162461bcd60e51b8152600401611b0290615626565b60405180910390611b11613406565b50505b6001600160a01b038416611b4c5760405162461bcd60e51b8152600401611b3a90615756565b60405180910390611b49613406565b50505b6116808310158015611b61575062013b008311155b611b8f5760405162461bcd60e51b8152600401611b7d906157f6565b60405180910390611b8c613406565b50505b60018210158015611ba25750619d808211155b611bd05760405162461bcd60e51b8152600401611bbe906156c6565b60405180910390611bcd613406565b50505b690a968163f0a57b4000008110158015611bf4575069152d02c7e14af68000008111155b611c225760405162461bcd60e51b8152600401611c1090615696565b60405180910390611c1f613406565b50505b846008600181611c30613471565b816001600160a01b0302191690836001600160a01b0316021790611c52613517565b50505083600960006101000a81611c67613471565b816001600160a01b0302191690836001600160a01b0316021790611c89613517565b5050508260048190611c99613517565b5050508160038190611ca9613517565b5050508060058190611cb9613517565b5050505050505050565b600060086109ff613471565b60076108b4613471565b60006006611ce5613471565b611d135760405162461bcd60e51b8152600401611d0190615646565b60405180910390611d10613406565b50505b6005611d1d613471565b60006009611d29613471565b906101000a90046001600160a01b03166001600160a01b031663782d6fe15a611d506134d1565b611d5c5a6115ca613615565b6040518363ffffffff1660e01b8152600401611d799291906153bd565b6020604051808303818680611d8c61365b565b158015611da157600080611d9e613406565b50505b505a611dab613565565b5050505050158015611dca573d6000803e3d6000611dc7613406565b50505b50505050604051601f3d908101601f19168201604052611ded919081019061438b565b6001600160601b031611611e255760405162461bcd60e51b8152600401611e13906157b6565b60405180910390611e22613406565b50505b84518651148015611e37575083518651145b8015611e44575082518651145b611e725760405162461bcd60e51b8152600401611e60906156d6565b60405180910390611e6f613406565b50505b8551611ea25760405162461bcd60e51b8152600401611e9090615736565b60405180910390611e9f613406565b50505b600a86511115611ed65760405162461bcd60e51b8152600401611ec490615776565b60405180910390611ed3613406565b50505b6000600b60005a611ee56134d1565b6001600160a01b03166001600160a01b03168152602001908152602001600020611f0d613471565b90508015611fa0576000611f208261129d565b90506001816007811115611f3057fe5b1415611f605760405162461bcd60e51b8152600401611f4e90615796565b60405180910390611f5d613406565b50505b6000816007811115611f6e57fe5b1415611f9e5760405162461bcd60e51b8152600401611f8c90615786565b60405180910390611f9b613406565b50505b505b6000611fb85a611fae613615565b60036114b5613471565b90506000611fca8260046114b5613471565b90506007600081611fd9613471565b91600183019150611fe8613517565b505050611ff361379d565b604051806101c001604052806007612009613471565b81526020015a6120176134d1565b6001600160a01b03168152602001600081526020018b81526020018a815260200189815260200188815260200184815260200183815260200160008152602001600081526020016000815260200160001515815260200160001515815250905080600a60008360000151815260200190815260200160002081518161209a613517565b50506020820151600180830190816120b0613471565b816001600160a01b0302191690836001600160a01b03160217906120d2613517565b5050506040820151816002016120e6613517565b5050606082015181600301908051612102929160200190613819565b5060808201518160040190805161211d9291602001906138a3565b5060a082015181600501908051612138929160200190613903565b5060c08201518160060190805161215392916020019061396b565b5060e082015181600701612165613517565b505061010082015181600801612179613517565b50506101208201518160090161218d613517565b505061014082015181600a016121a1613517565b505061016082015181600b016121b5613517565b5050610180820151600c82016001816121cc613471565b8160ff021916908315150217906121e1613517565b5050506101a0820151600c8201610100816121fa613471565b8160ff0219169083151502179061220f613517565b5084935050505051600b600083602001516001600160a01b03166001600160a01b03168152602001908152602001600020819061224a613517565b5050507f7d84a6263ae0d98d3329bd7b46bb4e8d6f98cd35a7adb45c274c8b7fd5ebd5e081600001515a61227c6134d1565b8c8c8c8c89898e60405161229899989796959493929190615824565b60405180910390a180519450505050505b95945050505050565b60046122bd8261129d565b60078111156122c857fe5b146122f75760405162461bcd60e51b81526004016122e590615706565b604051809103906122f4613406565b50505b6000818152600a60205260408120905060006123645a6123156136a7565b60006008612321613471565b906101000a90046001600160a01b03166001600160a01b0316636a42b8f86040518163ffffffff1660e01b8152600401602060405180830381868061145461365b565b905060005b8260030180612376613471565b905081101561259b57612593836003018281612390613471565b811061239857fe5b906000526020600020016000906123ad613471565b906101000a90046001600160a01b03168460040183816123cb613471565b81106123d357fe5b906000526020600020016123e5613471565b8560050184816123f3613471565b81106123fb57fe5b906000526020600020018061240e613471565b600181600116156101000203166002900480601f016020809104026020016040519081016040528181529190602083018280612448613471565b600181600116156101000203166002900480156124b45780601f10612482576101008083612474613471565b0402835291602001916124b4565b820191906000526020600020905b81612499613471565b8152906001019060200180831161249057829003601f168201915b50505050508660060185816124c7613471565b81106124cf57fe5b90600052602060002001806124e2613471565b600181600116156101000203166002900480601f01602080910402602001604051908101604052818152919060208301828061251c613471565b600181600116156101000203166002900480156125885780601f10612556576101008083612548613471565b040283529160200191612588565b820191906000526020600020905b8161256d613471565b8152906001019060200180831161256457829003601f168201915b505050505086613220565b600101612369565b508080600284016125aa613517565b5050507f9a2e42fd6722813d69113e7d0079d3d940171428df7373df9c7f7617cfda28928382604051610d32929190615952565b604051610c2590615368565b6125f26139d3565b6000838152600a602052604090206001600160a01b0383166000908152600d9190910160205260409020604051606081016040529081600082612633613471565b60ff6101009290920a90041615158152602001600182612651613471565b60ff6101009290920a900416815260200160028261266d613471565b6001600160601b036101009290920a90041690525090505b92915050565b600181565b6000600161269c613471565b906101000a90046001600160a01b03166001600160a01b03165a6126be6134d1565b6001600160a01b03161480156126e6575060005a6126da6134d1565b6001600160a01b031614155b6127145760405162461bcd60e51b815260040161270290615746565b60405180910390612711613406565b50505b60008080612720613471565b906101000a90046001600160a01b0316905060006001600090612741613471565b906101000a90046001600160a01b031690506001600090612760613471565b906101000a90046001600160a01b03166000806101000a81612780613471565b816001600160a01b0302191690836001600160a01b03160217906127a2613517565b5050506000600160006101000a816127b8613471565b816001600160a01b0302191690836001600160a01b03160217906127da613517565b5050507ff9ffabca9c8276e99321725bcb43fb076a6c66a54b7f21c4e8146d8519b417dc826000809061280b613471565b906101000a90046001600160a01b03166040516128299291906153d8565b60405180910390a1600080516020615c20833981519152816000600161284d613471565b906101000a90046001600160a01b03166040516109e79291906153d8565b6000806109ff613471565b600080612881613471565b906101000a90046001600160a01b03166001600160a01b03165a6128a36134d1565b6001600160a01b0316146128db5760405162461bcd60e51b81526004016128c9906157a6565b604051809103906128d8613406565b50505b60066128e5613471565b156129145760405162461bcd60e51b815260040161290290615726565b60405180910390612911613406565b50505b806001600160a01b031663da35c6646040518163ffffffff1660e01b81526004016020604051808303816000878061294a61365b565b15801561295f5760008061295c613406565b50505b505a6129696136ed565b505050505050158015612989573d6000803e3d6000612986613406565b50505b50505050604051601f3d908101601f191682016040526129ac91908101906141bd565b8060076129b7613517565b50505060076129c4613471565b8060066129cf613517565b50505060086000906129df613471565b906101000a90046001600160a01b03166001600160a01b0316630e18b6816040518163ffffffff1660e01b815260040160006040518083038160008780612a2461365b565b158015612a3957600080612a36613406565b50505b505a612a436136ed565b505050505050158015612a63573d6000803e3d6000612a60613406565b50505b5050505050565b60066108b4613471565b6005612a7f8261129d565b6007811115612a8a57fe5b14612ab95760405162461bcd60e51b8152600401612aa7906156a6565b60405180910390612ab6613406565b50505b6000818152600a6020526040812090506001600c820161010081612adb613471565b8160ff02191690831515021790612af0613517565b5060009150505b8160030180612b04613471565b9050811015612cb35760006008612b19613471565b906101000a90046001600160a01b03166001600160a01b0316630825f38f836004018381612b45613471565b8110612b4d57fe5b90600052602060002001612b5f613471565b846003018481612b6d613471565b8110612b7557fe5b90600052602060002001600090612b8a613471565b906101000a90046001600160a01b0316856004018581612ba8613471565b8110612bb057fe5b90600052602060002001612bc2613471565b866005018681612bd0613471565b8110612bd857fe5b90600052602060002001876006018781612bf0613471565b8110612bf857fe5b9060005260206000200188600201612c0e613471565b6040518763ffffffff1660e01b8152600401612c2e95949392919061545b565b600060405180830381858880612c4261365b565b158015612c5757600080612c54613406565b50505b505a612c616136ed565b505050505050158015612c81573d6000803e3d6000612c7e613406565b50505b50505050506040513d6000823e601f3d908101601f19168201604052612caa91908101906141e4565b50600101612af7565b507f712ae1383f79ac853f8d882153778e0260ef8f03b504e2866e0593e04d2b291f826040516109e791906154e9565b600073c0c0395f1aea1c80e81fe0f01f53cdbd96905aa881816370a082315a63996d79a5598160e01b8152602081600483336000905af158600e01573d6000803e3d6000fd5b3d6001141558600a015760016000f35b8051925060005b6040811015612d5757600082820152602001612d40565b5050506040518263ffffffff1660e01b8152600401612d7691906153af565b6020604051808303818680612d8961365b565b158015612d9e57600080612d9b613406565b50505b505a612da8613565565b5050505050158015612dc7573d6000803e3d6000612dc4613406565b50505b50505050604051601f3d908101601f19168201604052612dea91908101906141bd565b9050600084118015612dfc5750808411155b15612eb257816001600160a01b031663a9059cbb86866040518363ffffffff1660e01b8152600401612e2f9291906153f3565b60206040518083038160008780612e4461365b565b158015612e5957600080612e56613406565b50505b505a612e636136ed565b505050505050158015612e83573d6000803e3d6000612e80613406565b50505b50505050604051601f3d908101601f19168201604052612ea69190810190614196565b50600092505050612685565b50919392505050565b6000805a612ec76139f2565b9150505b90565b60006001612edb8461129d565b6007811115612ee657fe5b14612f155760405162461bcd60e51b8152600401612f0390615666565b60405180910390612f12613406565b50505b60028260ff161115612f4b5760405162461bcd60e51b8152600401612f39906155b6565b60405180910390612f48613406565b50505b6000838152600a602052604081206001600160a01b0386166000908152600d8201602052909150604081209050600081612f83613471565b60ff6101009290920a90041615612fbe5760405162461bcd60e51b8152600401612fac90615676565b60405180910390612fbb613406565b50505b6000806009612fcb613471565b906101000a90046001600160a01b03166001600160a01b031663782d6fe18885600701612ff6613471565b6040518363ffffffff1660e01b81526004016130139291906153f3565b602060405180830381868061302661365b565b15801561303b57600080613038613406565b50505b505a613045613565565b5050505050158015613064573d6000803e3d6000613061613406565b50505b50505050604051601f3d908101601f19168201604052613087919081019061438b565b905060ff85166130c4576130af83600a016130a0613471565b826001600160601b03166131a9565b80600a85016130bc613517565b505050613118565b8460ff16600114156130ec576130df836009016130a0613471565b80600985016130bc613517565b8460ff16600214156131185761310783600b016130a0613471565b80600b8501613114613517565b5050505b6001828181613125613471565b8160ff0219169083151502179061313a613517565b508691508390506101008161314d613471565b8160ff021916908360ff16021790613163613517565b508291508390506201000081613177613471565b816001600160601b0302191690836001600160601b0316021790613199613517565b50919450505050505b9392505050565b6000828201838110156131a25760405162461bcd60e51b81526004016131ce90615716565b604051809103906131dd613406565b50509392505050565b60008282111561321a5760405162461bcd60e51b815260040161320890615806565b60405180910390613217613406565b50505b50900390565b6000600861322c613471565b906101000a90046001600160a01b03166001600160a01b031663f2b065378686868686604051602001613263959493929190615401565b604051602081830303815290604052805190602001206040518263ffffffff1660e01b815260040161329591906154e9565b60206040518083038186806132a861365b565b1580156132bd576000806132ba613406565b50505b505a6132c7613565565b50505050501580156132e6573d6000803e3d60006132e3613406565b50505b50505050604051601f3d908101601f191682016040526133099190810190614196565b156133385760405162461bcd60e51b815260040161332690615606565b60405180910390613335613406565b50505b60006008613344613471565b906101000a90046001600160a01b03166001600160a01b0316633a66f90186868686866040518663ffffffff1660e01b8152600401613387959493929190615401565b6020604051808303816000878061339c61365b565b1580156133b1576000806133ae613406565b50505b505a6133bb6136ed565b5050505050501580156133db573d6000803e3d60006133d8613406565b50505b50505050604051601f3d908101601f191682016040526133fe91908101906141bd565b505050505050565b632a2a7adb598160e01b8152600481016020815285602082015260005b8681101561343e578086015182820160400152602001613423565b506020828760640184336000905af158600e01573d6000803e3d6000fd5b3d6001141558600a015760016000f35b505050565b6303daa959598160e01b8152836004820152602081602483336000905af158600e01573d6000803e3d6000fd5b3d6001141558600a015760016000f35b8051935060005b60408110156134cc576000828201526020016134b5565b505050565b6373509064598160e01b8152602081600483336000905af158600e01573d6000803e3d6000fd5b3d6001141558600a015760016000f35b805160008252935060206134b5565b6322bd64c0598160e01b8152836004820152846024820152600081604483336000905af158600e01573d6000803e3d6000fd5b3d6001141558600a015760016000f35b6000815260206134b5565b638540661f598160e01b8152836004820152846024820152606060448201528660648201526084810160005b888110156135a9578088015182820152602001613591565b506060828960a40184336000905af158600e01573d6000803e3d6000fd5b3d6001141558600a015760016000f35b815160408301513d6000853e8b8b82606087013350600060045af15059845b8181101561360a57600081526020016135f6565b50919b505050505050565b635a98c361598160e01b8152602081600483336000905af158600e01573d6000803e3d6000fd5b3d6001141558600a015760016000f35b805160008252935060206134b5565b638435035b598160e01b8152836004820152602081602483336000905af158600e01573d6000803e3d6000fd5b3d6001141558600a015760016000f35b805160008252935060206134b5565b63bdbf8c36598160e01b8152602081600483336000905af158600e01573d6000803e3d6000fd5b3d6001141558600a015760016000f35b805160008252935060206134b5565b6385979f76598160e01b8152836004820152846024820152606060448201528760648201526084810160005b89811015613731578089015182820152602001613719565b506060828a60a40184336000905af158600e01573d6000803e3d6000fd5b3d6001141558600a015760016000f35b815160408301513d6000853e8c8c82606087013350600060045af15059845b81811015613792576000815260200161377e565b50919c505050505050565b604051806101c001604052806000815260200160006001600160a01b03168152602001600081526020016060815260200160608152602001606081526020016060815260200160008152602001600081526020016000815260200160008152602001600081526020016000151581526020016000151581525090565b8280613823613471565b828261382d613517565b5050906000526020600020908101928215613893579160200282015b828111156138935782518260018161385f613471565b816001600160a01b0302191690836001600160a01b0316021790613881613517565b50505091602001919060010190613849565b5061389f929150613a38565b5090565b82806138ad613471565b82826138b7613517565b50509060005260206000209081019282156138f7579160200282015b828111156138f7578251826138e6613517565b5050916020019190600101906138d3565b5061389f929150613a74565b828061390d613471565b8282613917613517565b505090600052602060002090810192821561395f579160200282015b8281111561395f5782518290805161394f929160200190613a99565b5091602001919060010190613933565b5061389f929150613b29565b8280613975613471565b828261397f613517565b50509060005260206000209081019282156139c7579160200282015b828111156139c7578251829080516139b7929160200190613b4c565b509160200191906001019061399b565b5061389f929150613bd5565b6040516060810160409081526000808352602083018190529082015290565b6390580256598160e01b8152602081600483336000905af158600e01573d6000803e3d6000fd5b3d6001141558600a015760016000f35b805160008252935060206134b5565b612ecb91905b8082111561389f57600081600181613a54613471565b906001600160a01b0302191690613a69613517565b505050600101613a3e565b612ecb91905b8082111561389f5760008082613a8e613517565b505050600101613a7a565b8280613aa3613471565b600181600116156101000203166002900490600052602060002090601f016020900481019282601f10613aea57805160ff19168380011785613ae3613517565b50506138f7565b82800160010185613af9613517565b505082156138f7579182015b828111156138f757825182613b18613517565b505091602001919060010190613b05565b612ecb91905b8082111561389f576000613b438282613bf8565b50600101613b2f565b8280613b56613471565b600181600116156101000203166002900490600052602060002090601f016020900481019282601f10613b9657805160ff19168380011785613ae3613517565b82800160010185613ba5613517565b505082156138f7579182015b828111156138f757825182613bc4613517565b505091602001919060010190613bb1565b612ecb91905b8082111561389f576000613bef8282613bf8565b50600101613bdb565b5080613c02613471565b6001816001161561010002031660029004600082613c1e613517565b505080601f10613c2e5750613c4a565b601f0160209004906000526020600020613c4a91810190613a74565b50565b803561268581615b41565b600082601f830112613c7257600080613c6f613406565b50505b8135613c85613c8082615a12565b6159df565b91508181835260208401935060208101905083856020840282011115613cb357600080613cb0613406565b50505b60005b83811015613cdf5781613cc98882613c4d565b8452506020928301929190910190600101613cb6565b5050505092915050565b600082601f830112613d0357600080613d00613406565b50505b8135613d11613c8082615a12565b81815260209384019390925082018360005b83811015613cdf5781358601613d398882613e60565b8452506020928301929190910190600101613d23565b600082601f830112613d6957600080613d66613406565b50505b8135613d77613c8082615a12565b81815260209384019390925082018360005b83811015613cdf5781358601613d9f8882613e60565b8452506020928301929190910190600101613d89565b600082601f830112613dcf57600080613dcc613406565b50505b8135613ddd613c8082615a12565b91508181835260208401935060208101905083856020840282011115613e0b57600080613e08613406565b50505b60005b83811015613cdf5781613e218882613e46565b8452506020928301929190910190600101613e0e565b60008151905061268581615b5b565b803561268581615b64565b60008151905061268581615b64565b600082601f830112613e7a57600080613e77613406565b50505b8135613e88613c8082615a3b565b91508082526020830160208301858383011115613ead57600080613eaa613406565b50505b613eb8838284615af5565b50505092915050565b600082601f830112613edb57600080613ed8613406565b50505b8151613ee9613c8082615a3b565b91508082526020830160208301858383011115613f0e57600080613f0b613406565b50505b613eb8838284615b01565b60008083601f840112613f3457600080613f31613406565b50505b5081356001600160401b03811115613f5457600080613f51613406565b50505b602083019150836001820283011115613f7557600080613f72613406565b50505b9250929050565b803561268581615b6d565b60008151905061268581615b76565b600060208284031215613fb157600080613fae613406565b50505b6000613fbd8484613c4d565b949350505050565b600080600080600060a08688031215613fe657600080613fe3613406565b50505b6000613ff28888613c4d565b955050602061400388828901613c4d565b945050604061401488828901613e46565b935050606061402588828901613e46565b925050608061403688828901613e46565b9150509295509295909350565b6000806040838503121561405f5760008061405c613406565b50505b600061406b8585613c4d565b925050602061407c85828601613e46565b9150509250929050565b600080600080600060a086880312156140a7576000806140a4613406565b50505b85356001600160401b038111156140c6576000806140c3613406565b50505b6140d288828901613c58565b95505060208601356001600160401b038111156140f7576000806140f4613406565b50505b61410388828901613db5565b94505060408601356001600160401b0381111561412857600080614125613406565b50505b61413488828901613d4f565b93505060608601356001600160401b0381111561415957600080614156613406565b50505b61416588828901613ce9565b92505060808601356001600160401b0381111561418a57600080614187613406565b50505b61403688828901613e60565b6000602082840312156141b1576000806141ae613406565b50505b6000613fbd8484613e37565b6000602082840312156141d8576000806141d5613406565b50505b6000613fbd8484613e51565b6000602082840312156141ff576000806141fc613406565b50505b81516001600160401b0381111561421e5760008061421b613406565b50505b613fbd84828501613ec1565b60006020828403121561424557600080614242613406565b50505b6000613fbd8484613e46565b6000806040838503121561426d5760008061426a613406565b50505b60006142798585613e46565b925050602061407c85828601613c4d565b600080604083850312156142a6576000806142a3613406565b50505b60006142b28585613e46565b925050602061407c85828601613f7c565b600080600080606085870312156142e2576000806142df613406565b50505b60006142ee8787613e46565b94505060206142ff87828801613f7c565b93505060408501356001600160401b0381111561432457600080614321613406565b50505b61433087828801613f19565b95989497509550505050565b600080600080600060a0868803121561435d5760008061435a613406565b50505b60006143698888613e46565b955050602061437a88828901613f7c565b945050604061401488828901613f7c565b6000602082840312156143a6576000806143a3613406565b50505b6000613fbd8484613f87565b60006143be83836143ed565b505060200190565b60006131a2838361458f565b60006143be8383614575565b6143e781615acd565b82525050565b6143e781615a95565b600061440182615a82565b61440b8185615a8c565b935061441683615a6b565b8060005b8381101561444457815161442e88826143b2565b975061443983615a6b565b92505060010161441a565b509495945050505050565b600061445a82615a82565b6144648185615a8c565b93508360208202850161447685615a6b565b8060005b858110156144b0578484038952815161449385826143c6565b945061449e83615a6b565b60209a909a019992505060010161447a565b5091979650505050505050565b60006144c882615a82565b6144d28185615a8c565b9350836020820285016144e485615a6b565b8060005b858110156144b0578484038952815161450185826143c6565b945061450c83615a6b565b60209a909a01999250506001016144e8565b600061452982615a82565b6145338185615a8c565b935061453e83615a6b565b8060005b8381101561444457815161455688826143d2565b975061456183615a6b565b925050600101614542565b6143e781615aa0565b6143e781612ecb565b6143e761458a82612ecb565b612ecb565b600061459a82615a82565b6145a48185615a8c565b93506145b4818560208601615b01565b6145bd81615b2d565b9093019392505050565b6000816145d2613471565b6001811680156145e9576001811461460f57614656565b607f60028304166145fa8187615a8c565b60ff1984168152955050602085019250614656565b6002820461461d8187615a8c565b955061462885615a71565b60005b8281101561464f578161463c613471565b888201526001919091019060200161462b565b8701945050505b505092915050565b6143e781615ad4565b6143e781615adf565b600061467c8385615a8c565b9350614689838584615af5565b6145bd83615b2d565b60008161469d613471565b6001811680156145e957600181146146b457614656565b600282046146c28187615a8c565b95506146cd85615a71565b60005b8281101561464f57816146e1613471565b88820152600191909101906020016146d0565b6000614701603283615a8c565b600080516020615ba083398151915281527120696e76616c696420766f7465207479706560701b602082015260400192915050565b6000614743601b83615a8c565b7a1a5b9cdd59999a58da595b9d0818dbdb5c08199bdc8819dc985b9d602a1b815260200192915050565b600061477a601983615a8c565b7806f6e6c792061646d696e2063616e206772616e7420636f6d7603c1b815260200192915050565b60006147af6028836114d8565b7f42616c6c6f742875696e743235362070726f706f73616c49642c75696e743820815267737570706f72742960c01b602082015260280192915050565b60006147f9603383615a8c565b7f476f7665726e6f72427261766f3a3a696e697469616c697a653a2063616e206f8152726e6c7920696e697469616c697a65206f6e636560681b602082015260400192915050565b600061484e602a83615a8c565b7f476f7665726e6f72427261766f3a5f73657450656e64696e6741646d696e3a2081526961646d696e206f6e6c7960b01b602082015260400192915050565b600061489a605583615a8c565b7f476f7665726e6f72427261766f3a3a71756575654f72526576657274496e746581527f726e616c3a206964656e746963616c2070726f706f73616c20616374696f6e20602082015274616c7265616479207175657565642061742065746160581b604082015260600192915050565b6000614917602b83615a8c565b600080516020615c6083398151915281526a2061646d696e206f6e6c7960a81b602082015260400192915050565b6000614952603383615a8c565b600080516020615bc083398151915281527269642074696d656c6f636b206164647265737360681b602082015260400192915050565b6000614995602a83615a8c565b600080516020615c4083398151915281526961646d696e206f6e6c7960b01b602082015260400192915050565b60006149cf603183615a8c565b7f476f7665726e6f72427261766f3a3a70726f706f73653a20476f7665726e6f7281527020427261766f206e6f742061637469766560781b602082015260400192915050565b6000614a226002836114d8565b61190160f01b815260020192915050565b6000614a40603683615a8c565b600080516020615c60833981519152815275081a5b9d985b1a59081d9bdd1a5b99c81c195c9a5bd960521b602082015260400192915050565b6000614a86603183615a8c565b600080516020615ba0833981519152815270081d9bdd1a5b99c81a5cc818db1bdcd959607a1b602082015260400192915050565b6000614ac7603483615a8c565b600080516020615ba0833981519152815273081d9bdd195c88185b1c9958591e481d9bdd195960621b602082015260400192915050565b6000614b0b603483615a8c565b600080516020615c40833981519152815273696e76616c696420766f74696e672064656c617960601b602082015260400192915050565b6000614b4f603583615a8c565b600080516020615bc08339815191528152741a59081c1c9bdc1bdcd85b081d1a1c995cda1bdb19605a1b602082015260400192915050565b6000614b94604583615a8c565b7f476f7665726e6f72427261766f3a3a657865637574653a2070726f706f73616c81527f2063616e206f6e6c7920626520657865637574656420696620697420697320716020820152641d595d595960da1b604082015260600192915050565b6000614c01602f83615a8c565b7f476f7665726e6f72427261766f3a3a63617374566f746542795369673a20696e81526e76616c6964207369676e617475726560881b602082015260400192915050565b6000614c52602f83615a8c565b600080516020615bc083398151915281526e696420766f74696e672064656c617960881b602082015260400192915050565b6000614c91604483615a8c565b7f476f7665726e6f72427261766f3a3a70726f706f73653a2070726f706f73616c81527f2066756e6374696f6e20696e666f726d6174696f6e206172697479206d69736d6020820152630c2e8c6d60e31b604082015260600192915050565b6000614cfd602583615a8c565b7f476f7665726e6f72427261766f3a3a696e697469616c697a653a2061646d696e815264206f6e6c7960d81b602082015260400192915050565b6000614d44604083615a8c565b600080516020615b8083398151915281527f686f6c643a20696e76616c69642070726f706f73616c207468726573686f6c64602082015260400192915050565b6000614d91604483615a8c565b7f476f7665726e6f72427261766f3a3a71756575653a2070726f706f73616c206381527f616e206f6e6c79206265207175657565642069662069742069732073756363656020820152631959195960e21b604082015260600192915050565b6000614dfd601183615a8c565b706164646974696f6e206f766572666c6f7760781b815260200192915050565b6000614e2a6043836114d8565b7f454950373132446f6d61696e28737472696e67206e616d652c75696e7432353681527f20636861696e49642c6164647265737320766572696679696e67436f6e74726160208201526263742960e81b604082015260430192915050565b6000614e95603083615a8c565b7f476f7665726e6f72427261766f3a3a5f696e6974696174653a2063616e206f6e81526f6c7920696e697469617465206f6e636560801b602082015260400192915050565b6000614ee7602c83615a8c565b7f476f7665726e6f72427261766f3a3a70726f706f73653a206d7573742070726f81526b7669646520616374696f6e7360a01b602082015260400192915050565b6000614f35602e83615a8c565b7f476f7665726e6f72427261766f3a5f61636365707441646d696e3a2070656e6481526d696e672061646d696e206f6e6c7960901b602082015260400192915050565b6000614f85602f83615a8c565b600080516020615bc083398151915281526e696420636f6d70206164647265737360881b602082015260400192915050565b6000614fc4602f83615a8c565b7f476f7665726e6f72427261766f3a3a63616e63656c3a2070726f706f7365722081526e18589bdd99481d1a1c995cda1bdb19608a1b602082015260400192915050565b6000615015602883615a8c565b7f476f7665726e6f72427261766f3a3a70726f706f73653a20746f6f206d616e7981526720616374696f6e7360c01b602082015260400192915050565b600061505f605983615a8c565b600080516020615be08339815191528152600080516020615c0083398151915260208201527808185b1c9958591e481c195b991a5b99c81c1c9bdc1bdcd85b603a1b604082015260600192915050565b60006150bc605883615a8c565b600080516020615be08339815191528152600080516020615c0083398151915260208201527708185b1c9958591e481858dd1a5d99481c1c9bdc1bdcd85b60421b604082015260600192915050565b6000612685600083615a8c565b6000615125602483615a8c565b7f476f7665726e6f72427261766f3a3a5f696e6974696174653a2061646d696e208152636f6e6c7960e01b602082015260400192915050565b600061516b603f83615a8c565b7f476f7665726e6f72427261766f3a3a70726f706f73653a2070726f706f73657281527f20766f7465732062656c6f772070726f706f73616c207468726573686f6c6400602082015260400192915050565b60006151ca603683615a8c565b7f476f7665726e6f72427261766f3a3a63616e63656c3a2063616e6e6f742063618152751b98d95b08195e1958dd5d1959081c1c9bdc1bdcd85b60521b602082015260400192915050565b6000615222603083615a8c565b600080516020615b8083398151915281526f686f6c643a2061646d696e206f6e6c7960801b602082015260400192915050565b6000615262602983615a8c565b7f476f7665726e6f72427261766f3a3a73746174653a20696e76616c69642070728152681bdc1bdcd85b081a5960ba1b602082015260400192915050565b60006152ad603083615a8c565b600080516020615bc083398151915281526f1a59081d9bdd1a5b99c81c195c9a5bd960821b602082015260400192915050565b60006152ed601583615a8c565b747375627472616374696f6e20756e646572666c6f7760581b815260200192915050565b606082018151615321848261456c565b506020820151615334602085018261534d565b506040820151615347604085018261535f565b50505050565b6143e781615abb565b6143e781615aea565b6143e781615ac1565b6000612685826147a2565b600061537e82614a15565b915061538a828561457e565b60208201915061539a828461457e565b5060200192915050565b600061268582614e1d565b6020810161268582846143ed565b604081016153cb82856143de565b6131a26020830184614575565b604081016153e682856143ed565b6131a260208301846143ed565b604081016153cb82856143ed565b60a0810161540f82886143ed565b61541c6020830187614575565b818103604083015261542e818661458f565b90508181036060830152615442818561458f565b90506154516080830184614575565b9695505050505050565b60a0810161546982886143ed565b6154766020830187614575565b81810360408301526154888186614692565b9050818103606083015261544281856145c7565b608080825281016154ad81876143f6565b905081810360208301526154c1818661451e565b905081810360408301526154d581856144bd565b90508181036060830152615451818461444f565b602081016126858284614575565b608081016155058287614575565b6155126020830186614575565b61551f6040830185614575565b6122a960608301846143ed565b6060810161553a8286614575565b6155476020830185614575565b613fbd604083018461534d565b608081016155628287614575565b61556f602083018661534d565b61557c6040830185614575565b6122a96060830184614575565b60208101612685828461465e565b602081016126858284614667565b602080825281016131a2818461458f565b60208082528101612685816146f4565b6020808252810161268581614736565b602080825281016126858161476d565b60208082528101612685816147ec565b6020808252810161268581614841565b602080825281016126858161488d565b602080825281016126858161490a565b6020808252810161268581614945565b6020808252810161268581614988565b60208082528101612685816149c2565b6020808252810161268581614a33565b6020808252810161268581614a79565b6020808252810161268581614aba565b6020808252810161268581614afe565b6020808252810161268581614b42565b6020808252810161268581614b87565b6020808252810161268581614bf4565b6020808252810161268581614c45565b6020808252810161268581614c84565b6020808252810161268581614cf0565b6020808252810161268581614d37565b6020808252810161268581614d84565b6020808252810161268581614df0565b6020808252810161268581614e88565b6020808252810161268581614eda565b6020808252810161268581614f28565b6020808252810161268581614f78565b6020808252810161268581614fb7565b6020808252810161268581615008565b6020808252810161268581615052565b60208082528101612685816150af565b6020808252810161268581615118565b602080825281016126858161515e565b60208082528101612685816151bd565b6020808252810161268581615215565b6020808252810161268581615255565b60208082528101612685816152a0565b60208082528101612685816152e0565b606081016126858284615311565b6101208101615833828c614575565b615840602083018b6143de565b8181036040830152615852818a6143f6565b90508181036060830152615866818961451e565b9050818103608083015261587a81886144bd565b905081810360a083015261588e818761444f565b905061589d60c0830186614575565b6158aa60e0830185614575565b8181036101008301526158bd818461458f565b9b9a5050505050505050505050565b61014081016158db828d614575565b6158e8602083018c6143ed565b6158f5604083018b614575565b615902606083018a614575565b61590f6080830189614575565b61591c60a0830188614575565b61592960c0830187614575565b61593660e0830186614575565b61594461010083018561456c565b6158bd61012083018461456c565b604081016153cb8285614575565b6080810161596e8288614575565b61597b602083018761534d565b6159886040830186615356565b818103606083015261599b818486614670565b979650505050505050565b608081016159b48286614575565b6159c1602083018561534d565b6159ce6040830184615356565b81810360608301526122a98161510b565b600060405190508181018181106001600160401b0382111715615a0a57600080615a07613406565b50505b604052919050565b60006001600160401b03821115615a3157600080615a2e613406565b50505b5060209081020190565b60006001600160401b03821115615a5a57600080615a57613406565b50505b506020601f91909101601f19160190565b60200190565b600081815281906020902092915050565b6000815192915050565b90815260200190565b600061268582615aaf565b151590565b806114d881615b37565b6001600160a01b031690565b60ff1690565b6001600160601b031690565b6000612685825b600061268582615a95565b600061268582615aa5565b600061268582615ac1565b82818337506000910152565b60005b83811015615b1c578082015183820152602001615b04565b838111156153475750506000910152565b601f01601f191690565b60088110613c4a57fe5b615b4a81615a95565b8114613c4a576000806134cc613406565b615b4a81615aa0565b615b4a81612ecb565b615b4a81615abb565b615b4a81615ac156fe476f7665726e6f72427261766f3a3a5f73657450726f706f73616c5468726573476f7665726e6f72427261766f3a3a63617374566f7465496e7465726e616c3a476f7665726e6f72427261766f3a3a696e697469616c697a653a20696e76616c476f7665726e6f72427261766f3a3a70726f706f73653a206f6e65206c6976652070726f706f73616c207065722070726f706f7365722c20666f756e6420616eca4f2f25d0898edd99413412fb94012f9e54ec8142f9b093e7720646a95b16a9476f7665726e6f72427261766f3a3a5f736574566f74696e6744656c61793a20476f7665726e6f72427261766f3a3a5f736574566f74696e67506572696f643ab8e138887d0aa13bab447e82de9d5c1777041ecd21ca36ba824ff1e6c07ddda4",
  "deployedBytecode": "0x6080604052600436106101d65760003560e01c8063013cf08b146101e457806302a251a31461022c57806306fdde03146102575780630ea2d98c14610282578063109d0af8146102ad57806317977c61146102d857806317ba1b8b146103015780631dfb1b5a1461032a57806320606b7014610353578063215809ca1461037157806324bc1a641461038f57806325fd935a146103ad57806326782247146103cb57806327efe3cb146103f6578063328dd9821461041f5780633932abb1146104585780633bccf4fd146104765780633e4f49e61461049f57806340e58ee5146104d557806356781388146104fe5780635c60da1b14610527578063791f5d23146105455780637b3c71d3146105635780637bdbe4d01461058c578063a64e024a146105aa578063b1126263146105c8578063b58131b0146105e6578063b71d1a0c14610604578063d13f90b41461062d578063d33219b414610656578063da35c66414610674578063da95691a14610692578063ddf0b009146106bb578063deaaa7cc146106e4578063e23a9a5214610702578063e48083fe14610738578063e9c714f214610756578063f851a44014610774578063f9d28b8014610792578063fc4eee42146107bb578063fe0d94c1146107d9575b6000806101e1613406565b50505b3480156101f9576000806101f6613406565b50505b5061020d61020836600461422a565b6107ec565b6040516102239a999897969594939291906158cc565b60405180910390f35b3480156102415760008061023e613406565b50505b5061024a6108aa565b60405161022391906154e9565b34801561026c57600080610269613406565b50505b506102756108b7565b60405161022391906155a5565b34801561029757600080610294613406565b50505b506102ab6102a636600461422a565b6108e8565b005b3480156102c2576000806102bf613406565b50505b506102cb6109f3565b6040516102239190615589565b3480156102ed576000806102ea613406565b50505b5061024a6102fc366004613f96565b610a12565b34801561031657600080610313613406565b50505b506102ab61032536600461422a565b610a2a565b34801561033f5760008061033c613406565b50505b506102ab61034e36600461422a565b610b2a565b34801561036857600080610365613406565b50505b5061024a610c19565b34801561038657600080610383613406565b50505b5061024a610c30565b3480156103a4576000806103a1613406565b50505b5061024a610c36565b3480156103c2576000806103bf613406565b50505b5061024a610c44565b3480156103e0576000806103dd613406565b50505b506103e9610c52565b60405161022391906153af565b34801561040b57600080610408613406565b50505b506102ab61041a366004614043565b610c5e565b34801561043457600080610431613406565b50505b5061044861044336600461422a565b610d3f565b604051610223949392919061549c565b34801561046d5760008061046a613406565b50505b5061024a611065565b34801561048b57600080610488613406565b50505b506102ab61049a36600461433c565b61106f565b3480156104b4576000806104b1613406565b50505b506104c86104c336600461422a565b61129d565b6040516102239190615597565b3480156104ea576000806104e7613406565b50505b506102ab6104f936600461422a565b6114dd565b34801561051357600080610510613406565b50505b506102ab61052236600461428a565b61186a565b34801561053c57600080610539613406565b50505b506103e96118bb565b34801561055a57600080610557613406565b50505b5061024a6118c7565b34801561057857600080610575613406565b50505b506102ab6105873660046142c3565b6118d5565b3480156105a15760008061059e613406565b50505b5061024a61192c565b3480156105bf576000806105bc613406565b50505b5061024a611931565b3480156105dd576000806105da613406565b50505b5061024a611938565b3480156105fb576000806105f8613406565b50505b5061024a61193e565b34801561061957600080610616613406565b50505b506102ab610628366004613f96565b611948565b3480156106425760008061063f613406565b50505b506102ab610651366004613fc5565b611a22565b34801561066b57600080610668613406565b50505b506102cb611cc3565b34801561068957600080610686613406565b50505b5061024a611ccf565b3480156106a7576000806106a4613406565b50505b5061024a6106b6366004614086565b611cd9565b3480156106d0576000806106cd613406565b50505b506102ab6106df36600461422a565b6122b2565b3480156106f9576000806106f6613406565b50505b5061024a6125de565b34801561071757600080610714613406565b50505b5061072b610726366004614251565b6125ea565b6040516102239190615816565b34801561074d5760008061074a613406565b50505b5061024a61268b565b34801561076b57600080610768613406565b50505b506102ab612690565b34801561078957600080610786613406565b50505b506103e961286b565b3480156107a7576000806107a4613406565b50505b506102ab6107b6366004613f96565b612876565b3480156107d0576000806107cd613406565b50505b5061024a612a6a565b6102ab6107e736600461422a565b612a74565b600a602052806000526040600020905080610805613471565b90600060018201610814613471565b906101000a90046001600160a01b03169080600201610831613471565b908060070161083e613471565b908060080161084b613471565b9080600901610858613471565b9080600a01610865613471565b9080600b01610872613471565b906000600c8201610881613471565b906101000a900460ff169080600c0160019061089b613471565b906101000a900460ff1690508a565b60046108b4613471565b81565b604051604080820190526017815276436f6d706f756e6420476f7665726e6f7220427261766f60481b602082015281565b6000806108f3613471565b906101000a90046001600160a01b03166001600160a01b03165a6109156134d1565b6001600160a01b03161461094d5760405162461bcd60e51b815260040161093b90615616565b6040518091039061094a613406565b50505b6116808110158015610962575062013b008111155b6109905760405162461bcd60e51b815260040161097e90615656565b6040518091039061098d613406565b50505b6000600461099c613471565b9050818060046109aa613517565b5050507f7e3f7f0708a84de9203036abaa450dccc85ad5ff52f78c170f3edb55cf5e88288160046109d9613471565b6040516109e7929190615952565b60405180910390a15050565b600060096109ff613471565b906101000a90046001600160a01b031681565b600b60205280600052604060002090506108b4613471565b600080610a35613471565b906101000a90046001600160a01b03166001600160a01b03165a610a576134d1565b6001600160a01b031614610a8f5760405162461bcd60e51b8152600401610a7d906157d6565b60405180910390610a8c613406565b50505b690a968163f0a57b4000008110158015610ab3575069152d02c7e14af68000008111155b610ae15760405162461bcd60e51b8152600401610acf906156f6565b60405180910390610ade613406565b50505b60006005610aed613471565b905081806005610afb613517565b5050507fccb45da8d5717e6c4544694297c4ba5cf151d455c9bb0ed4fc7a38411bc054618160056109d9613471565b600080610b35613471565b906101000a90046001600160a01b03166001600160a01b03165a610b576134d1565b6001600160a01b031614610b8f5760405162461bcd60e51b8152600401610b7d90615636565b60405180910390610b8c613406565b50505b60018110158015610ba25750619d808111155b610bd05760405162461bcd60e51b8152600401610bbe90615686565b60405180910390610bcd613406565b50505b60006003610bdc613471565b905081806003610bea613517565b5050507fc565b045403dc03c2eea82b81a0465edad9e2e7fc4d97e11421c209da93d7a938160036109d9613471565b604051610c25906153a4565b604051809103902081565b61168081565b6954b40b1f852bda00000081565b69152d02c7e14af680000081565b600060016109ff613471565b600080610c69613471565b906101000a90046001600160a01b03166001600160a01b03165a610c8b6134d1565b6001600160a01b031614610cc35760405162461bcd60e51b8152600401610cb1906155d6565b60405180910390610cc0613406565b50505b6000610ccf8383612ce3565b90508015610d015760405162461bcd60e51b8152600401610cef906155c6565b60405180910390610cfe613406565b50505b7f98b2f82a3a07f223a0be64b3d0f47711c64dccd1feafb94aa28156b38cd9695c8383604051610d329291906153f3565b60405180910390a1505050565b6000818152600a602052606090819081908190604081209050806003018160040182600501836006018380610d72613471565b806020026020016040519081016040528181529190602083018280610d95613471565b8015610de257602002820191906000526020600020905b600082610db7613471565b906101000a90046001600160a01b03166001600160a01b031681526020019060010190808311610dac575b505050505093508280610df3613471565b806020026020016040519081016040528181529190602083018280610e16613471565b8015610e4857602002820191906000526020600020905b81610e36613471565b81526020019060010190808311610e2d575b505050505092508180610e59613471565b8060200260200160405190810160405281815291906000602084015b82821015610f4c5783829060005260206000200180610e92613471565b600181600116156101000203166002900480601f016020809104026020016040519081016040528181529190602083018280610ecc613471565b60018160011615610100020316600290048015610f385780601f10610f06576101008083610ef8613471565b040283529160200191610f38565b820191906000526020600020905b81610f1d613471565b81529060010190602001808311610f1457829003601f168201915b505050505081526020019060010190610e75565b5050505091508080610f5c613471565b8060200260200160405190810160405281815291906000602084015b8282101561104f5783829060005260206000200180610f95613471565b600181600116156101000203166002900480601f016020809104026020016040519081016040528181529190602083018280610fcf613471565b6001816001161561010002031660029004801561103b5780601f10611009576101008083610ffb613471565b04028352916020019161103b565b820191906000526020600020905b81611020613471565b8152906001019060200180831161101757829003601f168201915b505050505081526020019060010190610f78565b5050505090509450945094509450509193509193565b60036108b4613471565b600060405161107d906153a4565b6040518091039020604051604080820190526017815276436f6d706f756e6420476f7665726e6f7220427261766f60481b6020820152805190602001206110c2612ebb565b5a63996d79a5598160e01b8152602081600483336000905af158601d01573d60011458600c01573d6000803e3d621234565260ea61109c528051925060005b604081101561111857600082820152602001611101565b50505060405160200161112e94939291906154f7565b604051602081830303815290604052805190602001209050600060405161115490615368565b604051809103902087876040516020016111709392919061552c565b6040516020818303038152906040528051906020012090506000828260405160200161119d929190615373565b6040516020818303038152906040528051906020012090506000600182888888604051600081526020016040526040516111da9493929190615554565b6020604051602081039080840390855a6111f2613565565b5050505050158015611211573d6000803e3d600061120e613406565b50505b5050506020604051035190506001600160a01b0381166112555760405162461bcd60e51b8152600401611243906156b6565b60405180910390611252613406565b50505b806001600160a01b0316600080516020615c808339815191528a8a61127b858e8e612ece565b60405161128a939291906159a6565b60405180910390a2505050505050505050565b60008160076112aa613471565b101580156112c0575060066112bd613471565b82115b6112ee5760405162461bcd60e51b81526004016112dc906157e6565b604051809103906112eb613406565b50505b6000828152600a6020526040812090506000600c820161130c613471565b906101000a900460ff16156113255760029150506114d8565b80600701611331613471565b5a61133a613615565b116113495760009150506114d8565b80600801611355613471565b5a61135e613615565b1161136d5760019150506114d8565b80600a01611379613471565b81600901611385613471565b1115806113a657506954b40b1f852bda000000816009016113a4613471565b105b156113b55760039150506114d8565b806002016113c1613471565b6113cf5760049150506114d8565b6001600c82016113dd613471565b906101000a900460ff16156113f65760079150506114d8565b6114ba81600201611405613471565b60006008611411613471565b906101000a90046001600160a01b03166001600160a01b031663c1a287e26040518163ffffffff1660e01b8152600401602060405180830381868061145461365b565b15801561146957600080611466613406565b50505b505a611473613565565b5050505050158015611492573d6000803e3d600061148f613406565b50505b50505050604051601f3d908101601f191682016040526114b591908101906141bd565b6131a9565b5a6114c36136a7565b106114d25760069150506114d8565b60059150505b919050565b60076114e88261129d565b60078111156114f357fe5b14156115235760405162461bcd60e51b8152600401611511906157c6565b60405180910390611520613406565b50505b6000818152600a602052604081209050600060018201611541613471565b906101000a90046001600160a01b03166001600160a01b03165a6115636134d1565b6001600160a01b0316148061166d5750600561157d613471565b60006009611589613471565b6001600160a01b036101009290920a90041663782d6fe16000600185016115ae613471565b906101000a90046001600160a01b03166115d15a6115ca613615565b60016131e6565b6040518363ffffffff1660e01b81526004016115ee9291906153f3565b602060405180830381868061160161365b565b15801561161657600080611613613406565b50505b505a611620613565565b505050505015801561163f573d6000803e3d600061163c613406565b50505b50505050604051601f3d908101601f19168201604052611662919081019061438b565b6001600160601b0316105b61169b5760405162461bcd60e51b815260040161168990615766565b60405180910390611698613406565b50505b6001600c820181816116ab613471565b8160ff021916908315150217906116c0613517565b5060009150505b81600301806116d4613471565b905081101561183a57600060086116e9613471565b906101000a90046001600160a01b03166001600160a01b031663591fcdfe836003018381611715613471565b811061171d57fe5b90600052602060002001600090611732613471565b906101000a90046001600160a01b0316846004018481611750613471565b811061175857fe5b9060005260206000200161176a613471565b856005018581611778613471565b811061178057fe5b90600052602060002001866006018681611798613471565b81106117a057fe5b90600052602060002001876002016117b6613471565b6040518663ffffffff1660e01b81526004016117d695949392919061545b565b600060405180830381600087806117eb61365b565b158015611800576000806117fd613406565b50505b505a61180a6136ed565b50505050505015801561182a573d6000803e3d6000611827613406565b50505b5050600190920191506116c79050565b507f789cf55be980739dad1d0699b93b58e806b51c9d96619bfa8fe0a28abaa7b30c826040516109e791906154e9565b5a6118736134d1565b6001600160a01b0316600080516020615c8083398151915283836118a05a6118996134d1565b8787612ece565b6040516118af939291906159a6565b60405180910390a25050565b600060026109ff613471565b690a968163f0a57b40000081565b5a6118de6134d1565b6001600160a01b0316600080516020615c80833981519152858561190b5a6119046134d1565b8989612ece565b868660405161191e959493929190615960565b60405180910390a250505050565b600a81565b62013b0081565b619d8081565b60056108b4613471565b600080611953613471565b906101000a90046001600160a01b03166001600160a01b03165a6119756134d1565b6001600160a01b0316146119ad5760405162461bcd60e51b815260040161199b906155f6565b604051809103906119aa613406565b50505b60008060016119ba613471565b906101000a90046001600160a01b0316905081600160006101000a816119de613471565b816001600160a01b0302191690836001600160a01b0316021790611a00613517565b505050600080516020615c2083398151915281836040516109e79291906153d8565b6000806008611a2f613471565b906101000a90046001600160a01b03166001600160a01b031614611a775760405162461bcd60e51b8152600401611a65906155e6565b60405180910390611a74613406565b50505b600080611a82613471565b906101000a90046001600160a01b03166001600160a01b03165a611aa46134d1565b6001600160a01b031614611adc5760405162461bcd60e51b8152600401611aca906156e6565b60405180910390611ad9613406565b50505b6001600160a01b038516611b145760405162461bcd60e51b8152600401611b0290615626565b60405180910390611b11613406565b50505b6001600160a01b038416611b4c5760405162461bcd60e51b8152600401611b3a90615756565b60405180910390611b49613406565b50505b6116808310158015611b61575062013b008311155b611b8f5760405162461bcd60e51b8152600401611b7d906157f6565b60405180910390611b8c613406565b50505b60018210158015611ba25750619d808211155b611bd05760405162461bcd60e51b8152600401611bbe906156c6565b60405180910390611bcd613406565b50505b690a968163f0a57b4000008110158015611bf4575069152d02c7e14af68000008111155b611c225760405162461bcd60e51b8152600401611c1090615696565b60405180910390611c1f613406565b50505b846008600181611c30613471565b816001600160a01b0302191690836001600160a01b0316021790611c52613517565b50505083600960006101000a81611c67613471565b816001600160a01b0302191690836001600160a01b0316021790611c89613517565b5050508260048190611c99613517565b5050508160038190611ca9613517565b5050508060058190611cb9613517565b5050505050505050565b600060086109ff613471565b60076108b4613471565b60006006611ce5613471565b611d135760405162461bcd60e51b8152600401611d0190615646565b60405180910390611d10613406565b50505b6005611d1d613471565b60006009611d29613471565b906101000a90046001600160a01b03166001600160a01b031663782d6fe15a611d506134d1565b611d5c5a6115ca613615565b6040518363ffffffff1660e01b8152600401611d799291906153bd565b6020604051808303818680611d8c61365b565b158015611da157600080611d9e613406565b50505b505a611dab613565565b5050505050158015611dca573d6000803e3d6000611dc7613406565b50505b50505050604051601f3d908101601f19168201604052611ded919081019061438b565b6001600160601b031611611e255760405162461bcd60e51b8152600401611e13906157b6565b60405180910390611e22613406565b50505b84518651148015611e37575083518651145b8015611e44575082518651145b611e725760405162461bcd60e51b8152600401611e60906156d6565b60405180910390611e6f613406565b50505b8551611ea25760405162461bcd60e51b8152600401611e9090615736565b60405180910390611e9f613406565b50505b600a86511115611ed65760405162461bcd60e51b8152600401611ec490615776565b60405180910390611ed3613406565b50505b6000600b60005a611ee56134d1565b6001600160a01b03166001600160a01b03168152602001908152602001600020611f0d613471565b90508015611fa0576000611f208261129d565b90506001816007811115611f3057fe5b1415611f605760405162461bcd60e51b8152600401611f4e90615796565b60405180910390611f5d613406565b50505b6000816007811115611f6e57fe5b1415611f9e5760405162461bcd60e51b8152600401611f8c90615786565b60405180910390611f9b613406565b50505b505b6000611fb85a611fae613615565b60036114b5613471565b90506000611fca8260046114b5613471565b90506007600081611fd9613471565b91600183019150611fe8613517565b505050611ff361379d565b604051806101c001604052806007612009613471565b81526020015a6120176134d1565b6001600160a01b03168152602001600081526020018b81526020018a815260200189815260200188815260200184815260200183815260200160008152602001600081526020016000815260200160001515815260200160001515815250905080600a60008360000151815260200190815260200160002081518161209a613517565b50506020820151600180830190816120b0613471565b816001600160a01b0302191690836001600160a01b03160217906120d2613517565b5050506040820151816002016120e6613517565b5050606082015181600301908051612102929160200190613819565b5060808201518160040190805161211d9291602001906138a3565b5060a082015181600501908051612138929160200190613903565b5060c08201518160060190805161215392916020019061396b565b5060e082015181600701612165613517565b505061010082015181600801612179613517565b50506101208201518160090161218d613517565b505061014082015181600a016121a1613517565b505061016082015181600b016121b5613517565b5050610180820151600c82016001816121cc613471565b8160ff021916908315150217906121e1613517565b5050506101a0820151600c8201610100816121fa613471565b8160ff0219169083151502179061220f613517565b5084935050505051600b600083602001516001600160a01b03166001600160a01b03168152602001908152602001600020819061224a613517565b5050507f7d84a6263ae0d98d3329bd7b46bb4e8d6f98cd35a7adb45c274c8b7fd5ebd5e081600001515a61227c6134d1565b8c8c8c8c89898e60405161229899989796959493929190615824565b60405180910390a180519450505050505b95945050505050565b60046122bd8261129d565b60078111156122c857fe5b146122f75760405162461bcd60e51b81526004016122e590615706565b604051809103906122f4613406565b50505b6000818152600a60205260408120905060006123645a6123156136a7565b60006008612321613471565b906101000a90046001600160a01b03166001600160a01b0316636a42b8f86040518163ffffffff1660e01b8152600401602060405180830381868061145461365b565b905060005b8260030180612376613471565b905081101561259b57612593836003018281612390613471565b811061239857fe5b906000526020600020016000906123ad613471565b906101000a90046001600160a01b03168460040183816123cb613471565b81106123d357fe5b906000526020600020016123e5613471565b8560050184816123f3613471565b81106123fb57fe5b906000526020600020018061240e613471565b600181600116156101000203166002900480601f016020809104026020016040519081016040528181529190602083018280612448613471565b600181600116156101000203166002900480156124b45780601f10612482576101008083612474613471565b0402835291602001916124b4565b820191906000526020600020905b81612499613471565b8152906001019060200180831161249057829003601f168201915b50505050508660060185816124c7613471565b81106124cf57fe5b90600052602060002001806124e2613471565b600181600116156101000203166002900480601f01602080910402602001604051908101604052818152919060208301828061251c613471565b600181600116156101000203166002900480156125885780601f10612556576101008083612548613471565b040283529160200191612588565b820191906000526020600020905b8161256d613471565b8152906001019060200180831161256457829003601f168201915b505050505086613220565b600101612369565b508080600284016125aa613517565b5050507f9a2e42fd6722813d69113e7d0079d3d940171428df7373df9c7f7617cfda28928382604051610d32929190615952565b604051610c2590615368565b6125f26139d3565b6000838152600a602052604090206001600160a01b0383166000908152600d9190910160205260409020604051606081016040529081600082612633613471565b60ff6101009290920a90041615158152602001600182612651613471565b60ff6101009290920a900416815260200160028261266d613471565b6001600160601b036101009290920a90041690525090505b92915050565b600181565b6000600161269c613471565b906101000a90046001600160a01b03166001600160a01b03165a6126be6134d1565b6001600160a01b03161480156126e6575060005a6126da6134d1565b6001600160a01b031614155b6127145760405162461bcd60e51b815260040161270290615746565b60405180910390612711613406565b50505b60008080612720613471565b906101000a90046001600160a01b0316905060006001600090612741613471565b906101000a90046001600160a01b031690506001600090612760613471565b906101000a90046001600160a01b03166000806101000a81612780613471565b816001600160a01b0302191690836001600160a01b03160217906127a2613517565b5050506000600160006101000a816127b8613471565b816001600160a01b0302191690836001600160a01b03160217906127da613517565b5050507ff9ffabca9c8276e99321725bcb43fb076a6c66a54b7f21c4e8146d8519b417dc826000809061280b613471565b906101000a90046001600160a01b03166040516128299291906153d8565b60405180910390a1600080516020615c20833981519152816000600161284d613471565b906101000a90046001600160a01b03166040516109e79291906153d8565b6000806109ff613471565b600080612881613471565b906101000a90046001600160a01b03166001600160a01b03165a6128a36134d1565b6001600160a01b0316146128db5760405162461bcd60e51b81526004016128c9906157a6565b604051809103906128d8613406565b50505b60066128e5613471565b156129145760405162461bcd60e51b815260040161290290615726565b60405180910390612911613406565b50505b806001600160a01b031663da35c6646040518163ffffffff1660e01b81526004016020604051808303816000878061294a61365b565b15801561295f5760008061295c613406565b50505b505a6129696136ed565b505050505050158015612989573d6000803e3d6000612986613406565b50505b50505050604051601f3d908101601f191682016040526129ac91908101906141bd565b8060076129b7613517565b50505060076129c4613471565b8060066129cf613517565b50505060086000906129df613471565b906101000a90046001600160a01b03166001600160a01b0316630e18b6816040518163ffffffff1660e01b815260040160006040518083038160008780612a2461365b565b158015612a3957600080612a36613406565b50505b505a612a436136ed565b505050505050158015612a63573d6000803e3d6000612a60613406565b50505b5050505050565b60066108b4613471565b6005612a7f8261129d565b6007811115612a8a57fe5b14612ab95760405162461bcd60e51b8152600401612aa7906156a6565b60405180910390612ab6613406565b50505b6000818152600a6020526040812090506001600c820161010081612adb613471565b8160ff02191690831515021790612af0613517565b5060009150505b8160030180612b04613471565b9050811015612cb35760006008612b19613471565b906101000a90046001600160a01b03166001600160a01b0316630825f38f836004018381612b45613471565b8110612b4d57fe5b90600052602060002001612b5f613471565b846003018481612b6d613471565b8110612b7557fe5b90600052602060002001600090612b8a613471565b906101000a90046001600160a01b0316856004018581612ba8613471565b8110612bb057fe5b90600052602060002001612bc2613471565b866005018681612bd0613471565b8110612bd857fe5b90600052602060002001876006018781612bf0613471565b8110612bf857fe5b9060005260206000200188600201612c0e613471565b6040518763ffffffff1660e01b8152600401612c2e95949392919061545b565b600060405180830381858880612c4261365b565b158015612c5757600080612c54613406565b50505b505a612c616136ed565b505050505050158015612c81573d6000803e3d6000612c7e613406565b50505b50505050506040513d6000823e601f3d908101601f19168201604052612caa91908101906141e4565b50600101612af7565b507f712ae1383f79ac853f8d882153778e0260ef8f03b504e2866e0593e04d2b291f826040516109e791906154e9565b600073c0c0395f1aea1c80e81fe0f01f53cdbd96905aa881816370a082315a63996d79a5598160e01b8152602081600483336000905af158601d01573d60011458600c01573d6000803e3d621234565260ea61109c528051925060005b6040811015612d5757600082820152602001612d40565b5050506040518263ffffffff1660e01b8152600401612d7691906153af565b6020604051808303818680612d8961365b565b158015612d9e57600080612d9b613406565b50505b505a612da8613565565b5050505050158015612dc7573d6000803e3d6000612dc4613406565b50505b50505050604051601f3d908101601f19168201604052612dea91908101906141bd565b9050600084118015612dfc5750808411155b15612eb257816001600160a01b031663a9059cbb86866040518363ffffffff1660e01b8152600401612e2f9291906153f3565b60206040518083038160008780612e4461365b565b158015612e5957600080612e56613406565b50505b505a612e636136ed565b505050505050158015612e83573d6000803e3d6000612e80613406565b50505b50505050604051601f3d908101601f19168201604052612ea69190810190614196565b50600092505050612685565b50919392505050565b6000805a612ec76139f2565b9150505b90565b60006001612edb8461129d565b6007811115612ee657fe5b14612f155760405162461bcd60e51b8152600401612f0390615666565b60405180910390612f12613406565b50505b60028260ff161115612f4b5760405162461bcd60e51b8152600401612f39906155b6565b60405180910390612f48613406565b50505b6000838152600a602052604081206001600160a01b0386166000908152600d8201602052909150604081209050600081612f83613471565b60ff6101009290920a90041615612fbe5760405162461bcd60e51b8152600401612fac90615676565b60405180910390612fbb613406565b50505b6000806009612fcb613471565b906101000a90046001600160a01b03166001600160a01b031663782d6fe18885600701612ff6613471565b6040518363ffffffff1660e01b81526004016130139291906153f3565b602060405180830381868061302661365b565b15801561303b57600080613038613406565b50505b505a613045613565565b5050505050158015613064573d6000803e3d6000613061613406565b50505b50505050604051601f3d908101601f19168201604052613087919081019061438b565b905060ff85166130c4576130af83600a016130a0613471565b826001600160601b03166131a9565b80600a85016130bc613517565b505050613118565b8460ff16600114156130ec576130df836009016130a0613471565b80600985016130bc613517565b8460ff16600214156131185761310783600b016130a0613471565b80600b8501613114613517565b5050505b6001828181613125613471565b8160ff0219169083151502179061313a613517565b508691508390506101008161314d613471565b8160ff021916908360ff16021790613163613517565b508291508390506201000081613177613471565b816001600160601b0302191690836001600160601b0316021790613199613517565b50919450505050505b9392505050565b6000828201838110156131a25760405162461bcd60e51b81526004016131ce90615716565b604051809103906131dd613406565b50509392505050565b60008282111561321a5760405162461bcd60e51b815260040161320890615806565b60405180910390613217613406565b50505b50900390565b6000600861322c613471565b906101000a90046001600160a01b03166001600160a01b031663f2b065378686868686604051602001613263959493929190615401565b604051602081830303815290604052805190602001206040518263ffffffff1660e01b815260040161329591906154e9565b60206040518083038186806132a861365b565b1580156132bd576000806132ba613406565b50505b505a6132c7613565565b50505050501580156132e6573d6000803e3d60006132e3613406565b50505b50505050604051601f3d908101601f191682016040526133099190810190614196565b156133385760405162461bcd60e51b815260040161332690615606565b60405180910390613335613406565b50505b60006008613344613471565b906101000a90046001600160a01b03166001600160a01b0316633a66f90186868686866040518663ffffffff1660e01b8152600401613387959493929190615401565b6020604051808303816000878061339c61365b565b1580156133b1576000806133ae613406565b50505b505a6133bb6136ed565b5050505050501580156133db573d6000803e3d60006133d8613406565b50505b50505050604051601f3d908101601f191682016040526133fe91908101906141bd565b505050505050565b632a2a7adb598160e01b8152600481016020815285602082015260005b8681101561343e578086015182820160400152602001613423565b506020828760640184336000905af158601d01573d60011458600c01573d6000803e3d621234565260ea61109c52505050565b6303daa959598160e01b8152836004820152602081602483336000905af158601d01573d60011458600c01573d6000803e3d621234565260ea61109c528051935060005b60408110156134cc576000828201526020016134b5565b505050565b6373509064598160e01b8152602081600483336000905af158601d01573d60011458600c01573d6000803e3d621234565260ea61109c52805160008252935060206134b5565b6322bd64c0598160e01b8152836004820152846024820152600081604483336000905af158601d01573d60011458600c01573d6000803e3d621234565260ea61109c526000815260206134b5565b638540661f598160e01b8152836004820152846024820152606060448201528660648201526084810160005b888110156135a9578088015182820152602001613591565b506060828960a40184336000905af158601d01573d60011458600c01573d6000803e3d621234565260ea61109c52815160408301513d6000853e8b8b82606087013350600060045af15059845b8181101561360a57600081526020016135f6565b50919b505050505050565b635a98c361598160e01b8152602081600483336000905af158601d01573d60011458600c01573d6000803e3d621234565260ea61109c52805160008252935060206134b5565b638435035b598160e01b8152836004820152602081602483336000905af158601d01573d60011458600c01573d6000803e3d621234565260ea61109c52805160008252935060206134b5565b63bdbf8c36598160e01b8152602081600483336000905af158601d01573d60011458600c01573d6000803e3d621234565260ea61109c52805160008252935060206134b5565b6385979f76598160e01b8152836004820152846024820152606060448201528760648201526084810160005b89811015613731578089015182820152602001613719565b506060828a60a40184336000905af158601d01573d60011458600c01573d6000803e3d621234565260ea61109c52815160408301513d6000853e8c8c82606087013350600060045af15059845b81811015613792576000815260200161377e565b50919c505050505050565b604051806101c001604052806000815260200160006001600160a01b03168152602001600081526020016060815260200160608152602001606081526020016060815260200160008152602001600081526020016000815260200160008152602001600081526020016000151581526020016000151581525090565b8280613823613471565b828261382d613517565b5050906000526020600020908101928215613893579160200282015b828111156138935782518260018161385f613471565b816001600160a01b0302191690836001600160a01b0316021790613881613517565b50505091602001919060010190613849565b5061389f929150613a38565b5090565b82806138ad613471565b82826138b7613517565b50509060005260206000209081019282156138f7579160200282015b828111156138f7578251826138e6613517565b5050916020019190600101906138d3565b5061389f929150613a74565b828061390d613471565b8282613917613517565b505090600052602060002090810192821561395f579160200282015b8281111561395f5782518290805161394f929160200190613a99565b5091602001919060010190613933565b5061389f929150613b29565b8280613975613471565b828261397f613517565b50509060005260206000209081019282156139c7579160200282015b828111156139c7578251829080516139b7929160200190613b4c565b509160200191906001019061399b565b5061389f929150613bd5565b6040516060810160409081526000808352602083018190529082015290565b6390580256598160e01b8152602081600483336000905af158601d01573d60011458600c01573d6000803e3d621234565260ea61109c52805160008252935060206134b5565b612ecb91905b8082111561389f57600081600181613a54613471565b906001600160a01b0302191690613a69613517565b505050600101613a3e565b612ecb91905b8082111561389f5760008082613a8e613517565b505050600101613a7a565b8280613aa3613471565b600181600116156101000203166002900490600052602060002090601f016020900481019282601f10613aea57805160ff19168380011785613ae3613517565b50506138f7565b82800160010185613af9613517565b505082156138f7579182015b828111156138f757825182613b18613517565b505091602001919060010190613b05565b612ecb91905b8082111561389f576000613b438282613bf8565b50600101613b2f565b8280613b56613471565b600181600116156101000203166002900490600052602060002090601f016020900481019282601f10613b9657805160ff19168380011785613ae3613517565b82800160010185613ba5613517565b505082156138f7579182015b828111156138f757825182613bc4613517565b505091602001919060010190613bb1565b612ecb91905b8082111561389f576000613bef8282613bf8565b50600101613bdb565b5080613c02613471565b6001816001161561010002031660029004600082613c1e613517565b505080601f10613c2e5750613c4a565b601f0160209004906000526020600020613c4a91810190613a74565b50565b803561268581615b41565b600082601f830112613c7257600080613c6f613406565b50505b8135613c85613c8082615a12565b6159df565b91508181835260208401935060208101905083856020840282011115613cb357600080613cb0613406565b50505b60005b83811015613cdf5781613cc98882613c4d565b8452506020928301929190910190600101613cb6565b5050505092915050565b600082601f830112613d0357600080613d00613406565b50505b8135613d11613c8082615a12565b81815260209384019390925082018360005b83811015613cdf5781358601613d398882613e60565b8452506020928301929190910190600101613d23565b600082601f830112613d6957600080613d66613406565b50505b8135613d77613c8082615a12565b81815260209384019390925082018360005b83811015613cdf5781358601613d9f8882613e60565b8452506020928301929190910190600101613d89565b600082601f830112613dcf57600080613dcc613406565b50505b8135613ddd613c8082615a12565b91508181835260208401935060208101905083856020840282011115613e0b57600080613e08613406565b50505b60005b83811015613cdf5781613e218882613e46565b8452506020928301929190910190600101613e0e565b60008151905061268581615b5b565b803561268581615b64565b60008151905061268581615b64565b600082601f830112613e7a57600080613e77613406565b50505b8135613e88613c8082615a3b565b91508082526020830160208301858383011115613ead57600080613eaa613406565b50505b613eb8838284615af5565b50505092915050565b600082601f830112613edb57600080613ed8613406565b50505b8151613ee9613c8082615a3b565b91508082526020830160208301858383011115613f0e57600080613f0b613406565b50505b613eb8838284615b01565b60008083601f840112613f3457600080613f31613406565b50505b5081356001600160401b03811115613f5457600080613f51613406565b50505b602083019150836001820283011115613f7557600080613f72613406565b50505b9250929050565b803561268581615b6d565b60008151905061268581615b76565b600060208284031215613fb157600080613fae613406565b50505b6000613fbd8484613c4d565b949350505050565b600080600080600060a08688031215613fe657600080613fe3613406565b50505b6000613ff28888613c4d565b955050602061400388828901613c4d565b945050604061401488828901613e46565b935050606061402588828901613e46565b925050608061403688828901613e46565b9150509295509295909350565b6000806040838503121561405f5760008061405c613406565b50505b600061406b8585613c4d565b925050602061407c85828601613e46565b9150509250929050565b600080600080600060a086880312156140a7576000806140a4613406565b50505b85356001600160401b038111156140c6576000806140c3613406565b50505b6140d288828901613c58565b95505060208601356001600160401b038111156140f7576000806140f4613406565b50505b61410388828901613db5565b94505060408601356001600160401b0381111561412857600080614125613406565b50505b61413488828901613d4f565b93505060608601356001600160401b0381111561415957600080614156613406565b50505b61416588828901613ce9565b92505060808601356001600160401b0381111561418a57600080614187613406565b50505b61403688828901613e60565b6000602082840312156141b1576000806141ae613406565b50505b6000613fbd8484613e37565b6000602082840312156141d8576000806141d5613406565b50505b6000613fbd8484613e51565b6000602082840312156141ff576000806141fc613406565b50505b81516001600160401b0381111561421e5760008061421b613406565b50505b613fbd84828501613ec1565b60006020828403121561424557600080614242613406565b50505b6000613fbd8484613e46565b6000806040838503121561426d5760008061426a613406565b50505b60006142798585613e46565b925050602061407c85828601613c4d565b600080604083850312156142a6576000806142a3613406565b50505b60006142b28585613e46565b925050602061407c85828601613f7c565b600080600080606085870312156142e2576000806142df613406565b50505b60006142ee8787613e46565b94505060206142ff87828801613f7c565b93505060408501356001600160401b0381111561432457600080614321613406565b50505b61433087828801613f19565b95989497509550505050565b600080600080600060a0868803121561435d5760008061435a613406565b50505b60006143698888613e46565b955050602061437a88828901613f7c565b945050604061401488828901613f7c565b6000602082840312156143a6576000806143a3613406565b50505b6000613fbd8484613f87565b60006143be83836143ed565b505060200190565b60006131a2838361458f565b60006143be8383614575565b6143e781615acd565b82525050565b6143e781615a95565b600061440182615a82565b61440b8185615a8c565b935061441683615a6b565b8060005b8381101561444457815161442e88826143b2565b975061443983615a6b565b92505060010161441a565b509495945050505050565b600061445a82615a82565b6144648185615a8c565b93508360208202850161447685615a6b565b8060005b858110156144b0578484038952815161449385826143c6565b945061449e83615a6b565b60209a909a019992505060010161447a565b5091979650505050505050565b60006144c882615a82565b6144d28185615a8c565b9350836020820285016144e485615a6b565b8060005b858110156144b0578484038952815161450185826143c6565b945061450c83615a6b565b60209a909a01999250506001016144e8565b600061452982615a82565b6145338185615a8c565b935061453e83615a6b565b8060005b8381101561444457815161455688826143d2565b975061456183615a6b565b925050600101614542565b6143e781615aa0565b6143e781612ecb565b6143e761458a82612ecb565b612ecb565b600061459a82615a82565b6145a48185615a8c565b93506145b4818560208601615b01565b6145bd81615b2d565b9093019392505050565b6000816145d2613471565b6001811680156145e9576001811461460f57614656565b607f60028304166145fa8187615a8c565b60ff1984168152955050602085019250614656565b6002820461461d8187615a8c565b955061462885615a71565b60005b8281101561464f578161463c613471565b888201526001919091019060200161462b565b8701945050505b505092915050565b6143e781615ad4565b6143e781615adf565b600061467c8385615a8c565b9350614689838584615af5565b6145bd83615b2d565b60008161469d613471565b6001811680156145e957600181146146b457614656565b600282046146c28187615a8c565b95506146cd85615a71565b60005b8281101561464f57816146e1613471565b88820152600191909101906020016146d0565b6000614701603283615a8c565b600080516020615ba083398151915281527120696e76616c696420766f7465207479706560701b602082015260400192915050565b6000614743601b83615a8c565b7a1a5b9cdd59999a58da595b9d0818dbdb5c08199bdc8819dc985b9d602a1b815260200192915050565b600061477a601983615a8c565b7806f6e6c792061646d696e2063616e206772616e7420636f6d7603c1b815260200192915050565b60006147af6028836114d8565b7f42616c6c6f742875696e743235362070726f706f73616c49642c75696e743820815267737570706f72742960c01b602082015260280192915050565b60006147f9603383615a8c565b7f476f7665726e6f72427261766f3a3a696e697469616c697a653a2063616e206f8152726e6c7920696e697469616c697a65206f6e636560681b602082015260400192915050565b600061484e602a83615a8c565b7f476f7665726e6f72427261766f3a5f73657450656e64696e6741646d696e3a2081526961646d696e206f6e6c7960b01b602082015260400192915050565b600061489a605583615a8c565b7f476f7665726e6f72427261766f3a3a71756575654f72526576657274496e746581527f726e616c3a206964656e746963616c2070726f706f73616c20616374696f6e20602082015274616c7265616479207175657565642061742065746160581b604082015260600192915050565b6000614917602b83615a8c565b600080516020615c6083398151915281526a2061646d696e206f6e6c7960a81b602082015260400192915050565b6000614952603383615a8c565b600080516020615bc083398151915281527269642074696d656c6f636b206164647265737360681b602082015260400192915050565b6000614995602a83615a8c565b600080516020615c4083398151915281526961646d696e206f6e6c7960b01b602082015260400192915050565b60006149cf603183615a8c565b7f476f7665726e6f72427261766f3a3a70726f706f73653a20476f7665726e6f7281527020427261766f206e6f742061637469766560781b602082015260400192915050565b6000614a226002836114d8565b61190160f01b815260020192915050565b6000614a40603683615a8c565b600080516020615c60833981519152815275081a5b9d985b1a59081d9bdd1a5b99c81c195c9a5bd960521b602082015260400192915050565b6000614a86603183615a8c565b600080516020615ba0833981519152815270081d9bdd1a5b99c81a5cc818db1bdcd959607a1b602082015260400192915050565b6000614ac7603483615a8c565b600080516020615ba0833981519152815273081d9bdd195c88185b1c9958591e481d9bdd195960621b602082015260400192915050565b6000614b0b603483615a8c565b600080516020615c40833981519152815273696e76616c696420766f74696e672064656c617960601b602082015260400192915050565b6000614b4f603583615a8c565b600080516020615bc08339815191528152741a59081c1c9bdc1bdcd85b081d1a1c995cda1bdb19605a1b602082015260400192915050565b6000614b94604583615a8c565b7f476f7665726e6f72427261766f3a3a657865637574653a2070726f706f73616c81527f2063616e206f6e6c7920626520657865637574656420696620697420697320716020820152641d595d595960da1b604082015260600192915050565b6000614c01602f83615a8c565b7f476f7665726e6f72427261766f3a3a63617374566f746542795369673a20696e81526e76616c6964207369676e617475726560881b602082015260400192915050565b6000614c52602f83615a8c565b600080516020615bc083398151915281526e696420766f74696e672064656c617960881b602082015260400192915050565b6000614c91604483615a8c565b7f476f7665726e6f72427261766f3a3a70726f706f73653a2070726f706f73616c81527f2066756e6374696f6e20696e666f726d6174696f6e206172697479206d69736d6020820152630c2e8c6d60e31b604082015260600192915050565b6000614cfd602583615a8c565b7f476f7665726e6f72427261766f3a3a696e697469616c697a653a2061646d696e815264206f6e6c7960d81b602082015260400192915050565b6000614d44604083615a8c565b600080516020615b8083398151915281527f686f6c643a20696e76616c69642070726f706f73616c207468726573686f6c64602082015260400192915050565b6000614d91604483615a8c565b7f476f7665726e6f72427261766f3a3a71756575653a2070726f706f73616c206381527f616e206f6e6c79206265207175657565642069662069742069732073756363656020820152631959195960e21b604082015260600192915050565b6000614dfd601183615a8c565b706164646974696f6e206f766572666c6f7760781b815260200192915050565b6000614e2a6043836114d8565b7f454950373132446f6d61696e28737472696e67206e616d652c75696e7432353681527f20636861696e49642c6164647265737320766572696679696e67436f6e74726160208201526263742960e81b604082015260430192915050565b6000614e95603083615a8c565b7f476f7665726e6f72427261766f3a3a5f696e6974696174653a2063616e206f6e81526f6c7920696e697469617465206f6e636560801b602082015260400192915050565b6000614ee7602c83615a8c565b7f476f7665726e6f72427261766f3a3a70726f706f73653a206d7573742070726f81526b7669646520616374696f6e7360a01b602082015260400192915050565b6000614f35602e83615a8c565b7f476f7665726e6f72427261766f3a5f61636365707441646d696e3a2070656e6481526d696e672061646d696e206f6e6c7960901b602082015260400192915050565b6000614f85602f83615a8c565b600080516020615bc083398151915281526e696420636f6d70206164647265737360881b602082015260400192915050565b6000614fc4602f83615a8c565b7f476f7665726e6f72427261766f3a3a63616e63656c3a2070726f706f7365722081526e18589bdd99481d1a1c995cda1bdb19608a1b602082015260400192915050565b6000615015602883615a8c565b7f476f7665726e6f72427261766f3a3a70726f706f73653a20746f6f206d616e7981526720616374696f6e7360c01b602082015260400192915050565b600061505f605983615a8c565b600080516020615be08339815191528152600080516020615c0083398151915260208201527808185b1c9958591e481c195b991a5b99c81c1c9bdc1bdcd85b603a1b604082015260600192915050565b60006150bc605883615a8c565b600080516020615be08339815191528152600080516020615c0083398151915260208201527708185b1c9958591e481858dd1a5d99481c1c9bdc1bdcd85b60421b604082015260600192915050565b6000612685600083615a8c565b6000615125602483615a8c565b7f476f7665726e6f72427261766f3a3a5f696e6974696174653a2061646d696e208152636f6e6c7960e01b602082015260400192915050565b600061516b603f83615a8c565b7f476f7665726e6f72427261766f3a3a70726f706f73653a2070726f706f73657281527f20766f7465732062656c6f772070726f706f73616c207468726573686f6c6400602082015260400192915050565b60006151ca603683615a8c565b7f476f7665726e6f72427261766f3a3a63616e63656c3a2063616e6e6f742063618152751b98d95b08195e1958dd5d1959081c1c9bdc1bdcd85b60521b602082015260400192915050565b6000615222603083615a8c565b600080516020615b8083398151915281526f686f6c643a2061646d696e206f6e6c7960801b602082015260400192915050565b6000615262602983615a8c565b7f476f7665726e6f72427261766f3a3a73746174653a20696e76616c69642070728152681bdc1bdcd85b081a5960ba1b602082015260400192915050565b60006152ad603083615a8c565b600080516020615bc083398151915281526f1a59081d9bdd1a5b99c81c195c9a5bd960821b602082015260400192915050565b60006152ed601583615a8c565b747375627472616374696f6e20756e646572666c6f7760581b815260200192915050565b606082018151615321848261456c565b506020820151615334602085018261534d565b506040820151615347604085018261535f565b50505050565b6143e781615abb565b6143e781615aea565b6143e781615ac1565b6000612685826147a2565b600061537e82614a15565b915061538a828561457e565b60208201915061539a828461457e565b5060200192915050565b600061268582614e1d565b6020810161268582846143ed565b604081016153cb82856143de565b6131a26020830184614575565b604081016153e682856143ed565b6131a260208301846143ed565b604081016153cb82856143ed565b60a0810161540f82886143ed565b61541c6020830187614575565b818103604083015261542e818661458f565b90508181036060830152615442818561458f565b90506154516080830184614575565b9695505050505050565b60a0810161546982886143ed565b6154766020830187614575565b81810360408301526154888186614692565b9050818103606083015261544281856145c7565b608080825281016154ad81876143f6565b905081810360208301526154c1818661451e565b905081810360408301526154d581856144bd565b90508181036060830152615451818461444f565b602081016126858284614575565b608081016155058287614575565b6155126020830186614575565b61551f6040830185614575565b6122a960608301846143ed565b6060810161553a8286614575565b6155476020830185614575565b613fbd604083018461534d565b608081016155628287614575565b61556f602083018661534d565b61557c6040830185614575565b6122a96060830184614575565b60208101612685828461465e565b602081016126858284614667565b602080825281016131a2818461458f565b60208082528101612685816146f4565b6020808252810161268581614736565b602080825281016126858161476d565b60208082528101612685816147ec565b6020808252810161268581614841565b602080825281016126858161488d565b602080825281016126858161490a565b6020808252810161268581614945565b6020808252810161268581614988565b60208082528101612685816149c2565b6020808252810161268581614a33565b6020808252810161268581614a79565b6020808252810161268581614aba565b6020808252810161268581614afe565b6020808252810161268581614b42565b6020808252810161268581614b87565b6020808252810161268581614bf4565b6020808252810161268581614c45565b6020808252810161268581614c84565b6020808252810161268581614cf0565b6020808252810161268581614d37565b6020808252810161268581614d84565b6020808252810161268581614df0565b6020808252810161268581614e88565b6020808252810161268581614eda565b6020808252810161268581614f28565b6020808252810161268581614f78565b6020808252810161268581614fb7565b6020808252810161268581615008565b6020808252810161268581615052565b60208082528101612685816150af565b6020808252810161268581615118565b602080825281016126858161515e565b60208082528101612685816151bd565b6020808252810161268581615215565b6020808252810161268581615255565b60208082528101612685816152a0565b60208082528101612685816152e0565b606081016126858284615311565b6101208101615833828c614575565b615840602083018b6143de565b8181036040830152615852818a6143f6565b90508181036060830152615866818961451e565b9050818103608083015261587a81886144bd565b905081810360a083015261588e818761444f565b905061589d60c0830186614575565b6158aa60e0830185614575565b8181036101008301526158bd818461458f565b9b9a5050505050505050505050565b61014081016158db828d614575565b6158e8602083018c6143ed565b6158f5604083018b614575565b615902606083018a614575565b61590f6080830189614575565b61591c60a0830188614575565b61592960c0830187614575565b61593660e0830186614575565b61594461010083018561456c565b6158bd61012083018461456c565b604081016153cb8285614575565b6080810161596e8288614575565b61597b602083018761534d565b6159886040830186615356565b818103606083015261599b818486614670565b979650505050505050565b608081016159b48286614575565b6159c1602083018561534d565b6159ce6040830184615356565b81810360608301526122a98161510b565b600060405190508181018181106001600160401b0382111715615a0a57600080615a07613406565b50505b604052919050565b60006001600160401b03821115615a3157600080615a2e613406565b50505b5060209081020190565b60006001600160401b03821115615a5a57600080615a57613406565b50505b506020601f91909101601f19160190565b60200190565b600081815281906020902092915050565b6000815192915050565b90815260200190565b600061268582615aaf565b151590565b806114d881615b37565b6001600160a01b031690565b60ff1690565b6001600160601b031690565b6000612685825b600061268582615a95565b600061268582615aa5565b600061268582615ac1565b82818337506000910152565b60005b83811015615b1c578082015183820152602001615b04565b838111156153475750506000910152565b601f01601f191690565b60088110613c4a57fe5b615b4a81615a95565b8114613c4a576000806134cc613406565b615b4a81615aa0565b615b4a81612ecb565b615b4a81615abb565b615b4a81615ac156fe476f7665726e6f72427261766f3a3a5f73657450726f706f73616c5468726573476f7665726e6f72427261766f3a3a63617374566f7465496e7465726e616c3a476f7665726e6f72427261766f3a3a696e697469616c697a653a20696e76616c476f7665726e6f72427261766f3a3a70726f706f73653a206f6e65206c6976652070726f706f73616c207065722070726f706f7365722c20666f756e6420616eca4f2f25d0898edd99413412fb94012f9e54ec8142f9b093e7720646a95b16a9476f7665726e6f72427261766f3a3a5f736574566f74696e6744656c61793a20476f7665726e6f72427261766f3a3a5f736574566f74696e67506572696f643ab8e138887d0aa13bab447e82de9d5c1777041ecd21ca36ba824ff1e6c07ddda4",
  "source": "pragma solidity ^0.5.16;\npragma experimental ABIEncoderV2;\n\nimport \"./GovernorBravoInterfaces.sol\";\nimport \"./Comp.sol\";\n\ncontract GovernorBravoDelegate is GovernorBravoDelegateStorageV1, GovernorBravoEvents {\n\n    /// @notice The name of this contract\n    string public constant name = \"Compound Governor Bravo\";\n\n    /// @notice The minimum setable proposal threshold\n    uint public constant MIN_PROPOSAL_THRESHOLD = 50000e18; // 50,000 Comp\n\n    /// @notice The maximum setable proposal threshold\n    uint public constant MAX_PROPOSAL_THRESHOLD = 100000e18; //100,000 Comp\n\n    /// @notice The minimum setable voting period\n    uint public constant MIN_VOTING_PERIOD = 5760; // About 24 hours\n\n    /// @notice The max setable voting period\n    uint public constant MAX_VOTING_PERIOD = 80640; // About 2 weeks\n\n    /// @notice The min setable voting delay\n    uint public constant MIN_VOTING_DELAY = 1;\n\n    /// @notice The max setable voting delay\n    uint public constant MAX_VOTING_DELAY = 40320; // About 1 week\n\n    /// @notice The number of votes in support of a proposal required in order for a quorum to be reached and for a vote to succeed\n    uint public constant quorumVotes = 400000e18; // 400,000 = 4% of Comp\n\n    /// @notice The maximum number of actions that can be included in a proposal\n    uint public constant proposalMaxOperations = 10; // 10 actions\n\n    /// @notice The EIP-712 typehash for the contract's domain\n    bytes32 public constant DOMAIN_TYPEHASH = keccak256(\"EIP712Domain(string name,uint256 chainId,address verifyingContract)\");\n\n    /// @notice The EIP-712 typehash for the ballot struct used by the contract\n    bytes32 public constant BALLOT_TYPEHASH = keccak256(\"Ballot(uint256 proposalId,uint8 support)\");\n\n    /**\n      * @notice Used to initialize the contract during delegator contructor\n      * @param timelock_ The address of the Timelock\n      * @param comp_ The address of the COMP token\n      * @param votingPeriod_ The initial voting period\n      * @param votingDelay_ The initial voting delay\n      * @param proposalThreshold_ The initial proposal threshold\n      */\n    function initialize(address timelock_, address comp_, uint votingPeriod_, uint votingDelay_, uint proposalThreshold_) public {\n        require(address(timelock) == address(0), \"GovernorBravo::initialize: can only initialize once\");\n        require(msg.sender == admin, \"GovernorBravo::initialize: admin only\");\n        require(timelock_ != address(0), \"GovernorBravo::initialize: invalid timelock address\");\n        require(comp_ != address(0), \"GovernorBravo::initialize: invalid comp address\");\n        require(votingPeriod_ >= MIN_VOTING_PERIOD && votingPeriod_ <= MAX_VOTING_PERIOD, \"GovernorBravo::initialize: invalid voting period\");\n        require(votingDelay_ >= MIN_VOTING_DELAY && votingDelay_ <= MAX_VOTING_DELAY, \"GovernorBravo::initialize: invalid voting delay\");\n        require(proposalThreshold_ >= MIN_PROPOSAL_THRESHOLD && proposalThreshold_ <= MAX_PROPOSAL_THRESHOLD, \"GovernorBravo::initialize: invalid proposal threshold\");\n\n        timelock = TimelockInterface(timelock_);\n        comp = CompInterface(comp_);\n        votingPeriod = votingPeriod_;\n        votingDelay = votingDelay_;\n        proposalThreshold = proposalThreshold_;\n    }\n\n    /**\n      * @notice Function used to propose a new proposal. Sender must have delegates above the proposal threshold\n      * @param targets Target addresses for proposal calls\n      * @param values Eth values for proposal calls\n      * @param signatures Function signatures for proposal calls\n      * @param calldatas Calldatas for proposal calls\n      * @param description String description of the proposal\n      * @return Proposal id of new proposal\n      */\n    function propose(address[] memory targets, uint[] memory values, string[] memory signatures, bytes[] memory calldatas, string memory description) public returns (uint) {\n        // Reject proposals before initiating as Governor\n        require(initialProposalId != 0, \"GovernorBravo::propose: Governor Bravo not active\");\n        require(comp.getPriorVotes(msg.sender, sub256(block.number, 1)) > proposalThreshold, \"GovernorBravo::propose: proposer votes below proposal threshold\");\n        require(targets.length == values.length && targets.length == signatures.length && targets.length == calldatas.length, \"GovernorBravo::propose: proposal function information arity mismatch\");\n        require(targets.length != 0, \"GovernorBravo::propose: must provide actions\");\n        require(targets.length <= proposalMaxOperations, \"GovernorBravo::propose: too many actions\");\n\n        uint latestProposalId = latestProposalIds[msg.sender];\n        if (latestProposalId != 0) {\n          ProposalState proposersLatestProposalState = state(latestProposalId);\n          require(proposersLatestProposalState != ProposalState.Active, \"GovernorBravo::propose: one live proposal per proposer, found an already active proposal\");\n          require(proposersLatestProposalState != ProposalState.Pending, \"GovernorBravo::propose: one live proposal per proposer, found an already pending proposal\");\n        }\n\n        uint startBlock = add256(block.number, votingDelay);\n        uint endBlock = add256(startBlock, votingPeriod);\n\n        proposalCount++;\n        Proposal memory newProposal = Proposal({\n            id: proposalCount,\n            proposer: msg.sender,\n            eta: 0,\n            targets: targets,\n            values: values,\n            signatures: signatures,\n            calldatas: calldatas,\n            startBlock: startBlock,\n            endBlock: endBlock,\n            forVotes: 0,\n            againstVotes: 0,\n            abstainVotes: 0,\n            canceled: false,\n            executed: false\n        });\n\n        proposals[newProposal.id] = newProposal;\n        latestProposalIds[newProposal.proposer] = newProposal.id;\n\n        emit ProposalCreated(newProposal.id, msg.sender, targets, values, signatures, calldatas, startBlock, endBlock, description);\n        return newProposal.id;\n    }\n\n    /**\n      * @notice Queues a proposal of state succeeded\n      * @param proposalId The id of the proposal to queue\n      */\n    function queue(uint proposalId) external {\n        require(state(proposalId) == ProposalState.Succeeded, \"GovernorBravo::queue: proposal can only be queued if it is succeeded\");\n        Proposal storage proposal = proposals[proposalId];\n        uint eta = add256(block.timestamp, timelock.delay());\n        for (uint i = 0; i < proposal.targets.length; i++) {\n            queueOrRevertInternal(proposal.targets[i], proposal.values[i], proposal.signatures[i], proposal.calldatas[i], eta);\n        }\n        proposal.eta = eta;\n        emit ProposalQueued(proposalId, eta);\n    }\n\n    function queueOrRevertInternal(address target, uint value, string memory signature, bytes memory data, uint eta) internal {\n        require(!timelock.queuedTransactions(keccak256(abi.encode(target, value, signature, data, eta))), \"GovernorBravo::queueOrRevertInternal: identical proposal action already queued at eta\");\n        timelock.queueTransaction(target, value, signature, data, eta);\n    }\n\n    /**\n      * @notice Executes a queued proposal if eta has passed\n      * @param proposalId The id of the proposal to execute\n      */\n    function execute(uint proposalId) external payable {\n        require(state(proposalId) == ProposalState.Queued, \"GovernorBravo::execute: proposal can only be executed if it is queued\");\n        Proposal storage proposal = proposals[proposalId];\n        proposal.executed = true;\n        for (uint i = 0; i < proposal.targets.length; i++) {\n            timelock.executeTransaction.value(proposal.values[i])(proposal.targets[i], proposal.values[i], proposal.signatures[i], proposal.calldatas[i], proposal.eta);\n        }\n        emit ProposalExecuted(proposalId);\n    }\n\n    /**\n      * @notice Cancels a proposal only if sender is the proposer, or proposer delegates dropped below proposal threshold\n      * @param proposalId The id of the proposal to cancel\n      */\n    function cancel(uint proposalId) external {\n        require(state(proposalId) != ProposalState.Executed, \"GovernorBravo::cancel: cannot cancel executed proposal\");\n\n        Proposal storage proposal = proposals[proposalId];\n        require(msg.sender == proposal.proposer || comp.getPriorVotes(proposal.proposer, sub256(block.number, 1)) < proposalThreshold, \"GovernorBravo::cancel: proposer above threshold\");\n\n        proposal.canceled = true;\n        for (uint i = 0; i < proposal.targets.length; i++) {\n            timelock.cancelTransaction(proposal.targets[i], proposal.values[i], proposal.signatures[i], proposal.calldatas[i], proposal.eta);\n        }\n\n        emit ProposalCanceled(proposalId);\n    }\n\n    /**\n      * @notice Gets actions of a proposal\n      * @param proposalId the id of the proposal\n      * @return Targets, values, signatures, and calldatas of the proposal actions\n      */\n    function getActions(uint proposalId) external view returns (address[] memory targets, uint[] memory values, string[] memory signatures, bytes[] memory calldatas) {\n        Proposal storage p = proposals[proposalId];\n        return (p.targets, p.values, p.signatures, p.calldatas);\n    }\n\n    /**\n      * @notice Gets the receipt for a voter on a given proposal\n      * @param proposalId the id of proposal\n      * @param voter The address of the voter\n      * @return The voting receipt\n      */\n    function getReceipt(uint proposalId, address voter) external view returns (Receipt memory) {\n        return proposals[proposalId].receipts[voter];\n    }\n\n    /**\n      * @notice Gets the state of a proposal\n      * @param proposalId The id of the proposal\n      * @return Proposal state\n      */\n    function state(uint proposalId) public view returns (ProposalState) {\n        require(proposalCount >= proposalId && proposalId > initialProposalId, \"GovernorBravo::state: invalid proposal id\");\n        Proposal storage proposal = proposals[proposalId];\n        if (proposal.canceled) {\n            return ProposalState.Canceled;\n        } else if (block.number <= proposal.startBlock) {\n            return ProposalState.Pending;\n        } else if (block.number <= proposal.endBlock) {\n            return ProposalState.Active;\n        } else if (proposal.forVotes <= proposal.againstVotes || proposal.forVotes < quorumVotes) {\n            return ProposalState.Defeated;\n        } else if (proposal.eta == 0) {\n            return ProposalState.Succeeded;\n        } else if (proposal.executed) {\n            return ProposalState.Executed;\n        } else if (block.timestamp >= add256(proposal.eta, timelock.GRACE_PERIOD())) {\n            return ProposalState.Expired;\n        } else {\n            return ProposalState.Queued;\n        }\n    }\n\n    /**\n      * @notice Cast a vote for a proposal\n      * @param proposalId The id of the proposal to vote on\n      * @param support The support value for the vote. 0=against, 1=for, 2=abstain\n      */\n    function castVote(uint proposalId, uint8 support) external {\n        emit VoteCast(msg.sender, proposalId, support, castVoteInternal(msg.sender, proposalId, support), \"\");\n    }\n\n    /**\n      * @notice Cast a vote for a proposal with a reason\n      * @param proposalId The id of the proposal to vote on\n      * @param support The support value for the vote. 0=against, 1=for, 2=abstain\n      * @param reason The reason given for the vote by the voter\n      */\n    function castVoteWithReason(uint proposalId, uint8 support, string calldata reason) external {\n        emit VoteCast(msg.sender, proposalId, support, castVoteInternal(msg.sender, proposalId, support), reason);\n    }\n\n    /**\n      * @notice Cast a vote for a proposal by signature\n      * @dev External function that accepts EIP-712 signatures for voting on proposals.\n      */\n    function castVoteBySig(uint proposalId, uint8 support, uint8 v, bytes32 r, bytes32 s) external {\n        bytes32 domainSeparator = keccak256(abi.encode(DOMAIN_TYPEHASH, keccak256(bytes(name)), getChainIdInternal(), address(this)));\n        bytes32 structHash = keccak256(abi.encode(BALLOT_TYPEHASH, proposalId, support));\n        bytes32 digest = keccak256(abi.encodePacked(\"\\x19\\x01\", domainSeparator, structHash));\n        address signatory = ecrecover(digest, v, r, s);\n        require(signatory != address(0), \"GovernorBravo::castVoteBySig: invalid signature\");\n        emit VoteCast(signatory, proposalId, support, castVoteInternal(signatory, proposalId, support), \"\");\n    }\n\n    /**\n      * @notice Internal function that caries out voting logic\n      * @param voter The voter that is casting their vote\n      * @param proposalId The id of the proposal to vote on\n      * @param support The support value for the vote. 0=against, 1=for, 2=abstain\n      * @return The number of votes cast\n      */\n    function castVoteInternal(address voter, uint proposalId, uint8 support) internal returns (uint96) {\n        require(state(proposalId) == ProposalState.Active, \"GovernorBravo::castVoteInternal: voting is closed\");\n        require(support <= 2, \"GovernorBravo::castVoteInternal: invalid vote type\");\n        Proposal storage proposal = proposals[proposalId];\n        Receipt storage receipt = proposal.receipts[voter];\n        require(receipt.hasVoted == false, \"GovernorBravo::castVoteInternal: voter already voted\");\n        uint96 votes = comp.getPriorVotes(voter, proposal.startBlock);\n\n        if (support == 0) {\n            proposal.againstVotes = add256(proposal.againstVotes, votes);\n        } else if (support == 1) {\n            proposal.forVotes = add256(proposal.forVotes, votes);\n        } else if (support == 2) {\n            proposal.abstainVotes = add256(proposal.abstainVotes, votes);\n        }\n\n        receipt.hasVoted = true;\n        receipt.support = support;\n        receipt.votes = votes;\n\n        return votes;\n    }\n\n    /**\n      * @notice Admin function for setting the voting delay\n      * @param newVotingDelay new voting delay, in blocks\n      */\n    function _setVotingDelay(uint newVotingDelay) external {\n        require(msg.sender == admin, \"GovernorBravo::_setVotingDelay: admin only\");\n        require(newVotingDelay >= MIN_VOTING_DELAY && newVotingDelay <= MAX_VOTING_DELAY, \"GovernorBravo::_setVotingDelay: invalid voting delay\");\n        uint oldVotingDelay = votingDelay;\n        votingDelay = newVotingDelay;\n\n        emit VotingDelaySet(oldVotingDelay,votingDelay);\n    }\n\n    /**\n      * @notice Admin function for setting the voting period\n      * @param newVotingPeriod new voting period, in blocks\n      */\n    function _setVotingPeriod(uint newVotingPeriod) external {\n        require(msg.sender == admin, \"GovernorBravo::_setVotingPeriod: admin only\");\n        require(newVotingPeriod >= MIN_VOTING_PERIOD && newVotingPeriod <= MAX_VOTING_PERIOD, \"GovernorBravo::_setVotingPeriod: invalid voting period\");\n        uint oldVotingPeriod = votingPeriod;\n        votingPeriod = newVotingPeriod;\n\n        emit VotingPeriodSet(oldVotingPeriod, votingPeriod);\n    }\n\n    /**\n      * @notice Admin function for setting the proposal threshold\n      * @dev newProposalThreshold must be greater than the hardcoded min\n      * @param newProposalThreshold new proposal threshold\n      */\n    function _setProposalThreshold(uint newProposalThreshold) external {\n        require(msg.sender == admin, \"GovernorBravo::_setProposalThreshold: admin only\");\n        require(newProposalThreshold >= MIN_PROPOSAL_THRESHOLD && newProposalThreshold <= MAX_PROPOSAL_THRESHOLD, \"GovernorBravo::_setProposalThreshold: invalid proposal threshold\");\n        uint oldProposalThreshold = proposalThreshold;\n        proposalThreshold = newProposalThreshold;\n\n        emit ProposalThresholdSet(oldProposalThreshold, proposalThreshold);\n    }\n\n    /**\n      * @notice Initiate the GovernorBravo contract\n      * @dev Admin only. Sets initial proposal id which initiates the contract, ensuring a continuous proposal id count\n      * @param governorAlpha The address for the Governor to continue the proposal id count from\n      */\n    function _initiate(address governorAlpha) external {\n        require(msg.sender == admin, \"GovernorBravo::_initiate: admin only\");\n        require(initialProposalId == 0, \"GovernorBravo::_initiate: can only initiate once\");\n        proposalCount = GovernorAlpha(governorAlpha).proposalCount();\n        initialProposalId = proposalCount;\n        timelock.acceptAdmin();\n    }\n\n    /**\n      * @notice Begins transfer of admin rights. The newPendingAdmin must call `_acceptAdmin` to finalize the transfer.\n      * @dev Admin function to begin change of admin. The newPendingAdmin must call `_acceptAdmin` to finalize the transfer.\n      * @param newPendingAdmin New pending admin.\n      */\n    function _setPendingAdmin(address newPendingAdmin) external {\n        // Check caller = admin\n        require(msg.sender == admin, \"GovernorBravo:_setPendingAdmin: admin only\");\n\n        // Save current value, if any, for inclusion in log\n        address oldPendingAdmin = pendingAdmin;\n\n        // Store pendingAdmin with value newPendingAdmin\n        pendingAdmin = newPendingAdmin;\n\n        // Emit NewPendingAdmin(oldPendingAdmin, newPendingAdmin)\n        emit NewPendingAdmin(oldPendingAdmin, newPendingAdmin);\n    }\n\n    /**\n      * @notice Accepts transfer of admin rights. msg.sender must be pendingAdmin\n      * @dev Admin function for pending admin to accept role and update admin\n      */\n    function _acceptAdmin() external {\n        // Check caller is pendingAdmin and pendingAdmin  address(0)\n        require(msg.sender == pendingAdmin && msg.sender != address(0), \"GovernorBravo:_acceptAdmin: pending admin only\");\n\n        // Save current values for inclusion in log\n        address oldAdmin = admin;\n        address oldPendingAdmin = pendingAdmin;\n\n        // Store admin with value pendingAdmin\n        admin = pendingAdmin;\n\n        // Clear the pending value\n        pendingAdmin = address(0);\n\n        emit NewAdmin(oldAdmin, admin);\n        emit NewPendingAdmin(oldPendingAdmin, pendingAdmin);\n    }\n\n    function add256(uint256 a, uint256 b) internal pure returns (uint) {\n        uint c = a + b;\n        require(c >= a, \"addition overflow\");\n        return c;\n    }\n\n    function sub256(uint256 a, uint256 b) internal pure returns (uint) {\n        require(b <= a, \"subtraction underflow\");\n        return a - b;\n    }\n\n    function getChainIdInternal() internal pure returns (uint) {\n        uint chainId;\n        assembly { chainId := chainid() }\n        return chainId;\n    }\n\n        /**\n     * @notice Transfer COMP to the user\n     * @dev Note: If there is not enough COMP, we do not perform the transfer all.\n     * @param user The address of the user to transfer COMP to\n     * @param amount The amount of COMP to (possibly) transfer\n     * @return The amount of COMP which was NOT transferred to the user\n     */\n    function grantCompInternal(address user, uint amount) internal returns (uint) {\n        Comp comp = Comp(0xC0c0395F1aea1C80e81fE0F01f53CdBd96905aa8);\n        uint compRemaining = comp.balanceOf(address(this));\n        if (amount > 0 && amount <= compRemaining) {\n            comp.transfer(user, amount);\n            return 0;\n        }\n        return amount;\n    }\n\n    /*** Comp Distribution Admin ***/\n\n\n    /**\n     * @notice Transfer COMP to the recipient\n     * @dev Note: If there is not enough COMP, we do not perform the transfer all.\n     * @param recipient The address of the recipient to transfer COMP to\n     * @param amount The amount of COMP to (possibly) transfer\n     */\n    function _grantComp(address recipient, uint amount) public {\n        require(msg.sender == admin, \"only admin can grant comp\");\n        uint amountLeft = grantCompInternal(recipient, amount);\n        require(amountLeft == 0, \"insufficient comp for grant\");\n        emit CompGranted(recipient, amount);\n    }\n}",
  "sourcePath": "/home/ecambronero/Developer/Enya/optimism/omgx_examples/compound-protocol/contracts/Governance/GovernorBravoDelegate.sol",
  "compiler": {
    "name": "solc",
    "version": "0.5.16"
  },
  "schemaVersion": "3.4.2",
  "updatedAt": "2021-07-27T17:10:34.390Z",
  "networkType": "ethereum",
  "devdoc": {
    "methods": {
      "_acceptAdmin()": {
        "details": "Admin function for pending admin to accept role and update admin"
      },
      "_grantComp(address,uint256)": {
        "details": "Note: If there is not enough COMP, we do not perform the transfer all.",
        "params": {
          "amount": "The amount of COMP to (possibly) transfer",
          "recipient": "The address of the recipient to transfer COMP to"
        }
      },
      "_initiate(address)": {
        "details": "Admin only. Sets initial proposal id which initiates the contract, ensuring a continuous proposal id count",
        "params": {
          "governorAlpha": "The address for the Governor to continue the proposal id count from"
        }
      },
      "_setPendingAdmin(address)": {
        "details": "Admin function to begin change of admin. The newPendingAdmin must call `_acceptAdmin` to finalize the transfer.",
        "params": {
          "newPendingAdmin": "New pending admin."
        }
      },
      "_setProposalThreshold(uint256)": {
        "details": "newProposalThreshold must be greater than the hardcoded min",
        "params": {
          "newProposalThreshold": "new proposal threshold"
        }
      },
      "_setVotingDelay(uint256)": {
        "params": {
          "newVotingDelay": "new voting delay, in blocks"
        }
      },
      "_setVotingPeriod(uint256)": {
        "params": {
          "newVotingPeriod": "new voting period, in blocks"
        }
      },
      "cancel(uint256)": {
        "params": {
          "proposalId": "The id of the proposal to cancel"
        }
      },
      "castVote(uint256,uint8)": {
        "params": {
          "proposalId": "The id of the proposal to vote on",
          "support": "The support value for the vote. 0=against, 1=for, 2=abstain"
        }
      },
      "castVoteBySig(uint256,uint8,uint8,bytes32,bytes32)": {
        "details": "External function that accepts EIP-712 signatures for voting on proposals."
      },
      "castVoteWithReason(uint256,uint8,string)": {
        "params": {
          "proposalId": "The id of the proposal to vote on",
          "reason": "The reason given for the vote by the voter",
          "support": "The support value for the vote. 0=against, 1=for, 2=abstain"
        }
      },
      "execute(uint256)": {
        "params": {
          "proposalId": "The id of the proposal to execute"
        }
      },
      "getActions(uint256)": {
        "params": {
          "proposalId": "the id of the proposal"
        },
        "return": "Targets, values, signatures, and calldatas of the proposal actions"
      },
      "getReceipt(uint256,address)": {
        "params": {
          "proposalId": "the id of proposal",
          "voter": "The address of the voter"
        },
        "return": "The voting receipt"
      },
      "initialize(address,address,uint256,uint256,uint256)": {
        "params": {
          "comp_": "The address of the COMP token",
          "proposalThreshold_": "The initial proposal threshold",
          "timelock_": "The address of the Timelock",
          "votingDelay_": "The initial voting delay",
          "votingPeriod_": "The initial voting period"
        }
      },
      "propose(address[],uint256[],string[],bytes[],string)": {
        "params": {
          "calldatas": "Calldatas for proposal calls",
          "description": "String description of the proposal",
          "signatures": "Function signatures for proposal calls",
          "targets": "Target addresses for proposal calls",
          "values": "Eth values for proposal calls"
        },
        "return": "Proposal id of new proposal"
      },
      "queue(uint256)": {
        "params": {
          "proposalId": "The id of the proposal to queue"
        }
      },
      "state(uint256)": {
        "params": {
          "proposalId": "The id of the proposal"
        },
        "return": "Proposal state"
      }
    }
  },
  "userdoc": {
    "methods": {
      "_acceptAdmin()": {
        "notice": "Accepts transfer of admin rights. msg.sender must be pendingAdmin"
      },
      "_grantComp(address,uint256)": {
        "notice": "Transfer COMP to the recipient"
      },
      "_initiate(address)": {
        "notice": "Initiate the GovernorBravo contract"
      },
      "_setPendingAdmin(address)": {
        "notice": "Begins transfer of admin rights. The newPendingAdmin must call `_acceptAdmin` to finalize the transfer."
      },
      "_setProposalThreshold(uint256)": {
        "notice": "Admin function for setting the proposal threshold"
      },
      "_setVotingDelay(uint256)": {
        "notice": "Admin function for setting the voting delay"
      },
      "_setVotingPeriod(uint256)": {
        "notice": "Admin function for setting the voting period"
      },
      "cancel(uint256)": {
        "notice": "Cancels a proposal only if sender is the proposer, or proposer delegates dropped below proposal threshold"
      },
      "castVote(uint256,uint8)": {
        "notice": "Cast a vote for a proposal"
      },
      "castVoteBySig(uint256,uint8,uint8,bytes32,bytes32)": {
        "notice": "Cast a vote for a proposal by signature"
      },
      "castVoteWithReason(uint256,uint8,string)": {
        "notice": "Cast a vote for a proposal with a reason"
      },
      "execute(uint256)": {
        "notice": "Executes a queued proposal if eta has passed"
      },
      "getActions(uint256)": {
        "notice": "Gets actions of a proposal"
      },
      "getReceipt(uint256,address)": {
        "notice": "Gets the receipt for a voter on a given proposal"
      },
      "initialize(address,address,uint256,uint256,uint256)": {
        "notice": "Used to initialize the contract during delegator contructor"
      },
      "propose(address[],uint256[],string[],bytes[],string)": {
        "notice": "Function used to propose a new proposal. Sender must have delegates above the proposal threshold"
      },
      "queue(uint256)": {
        "notice": "Queues a proposal of state succeeded"
      },
      "state(uint256)": {
        "notice": "Gets the state of a proposal"
      }
    }
  }
}